{
  "_format": "hh-sol-artifact-1",
  "contractName": "SplitFactory",
  "sourceName": "contracts/SplitFactory.sol",
  "abi": [
    {
      "inputs": [],
      "name": "InvalidArrayLength",
      "type": "error"
    },
    {
      "inputs": [],
      "name": "InvalidPercentage",
      "type": "error"
    },
    {
      "inputs": [],
      "name": "InvalidRecipientAddress",
      "type": "error"
    },
    {
      "inputs": [],
      "name": "PercentagesMustSumTo100",
      "type": "error"
    },
    {
      "anonymous": false,
      "inputs": [
        {
          "indexed": true,
          "internalType": "address",
          "name": "splitAddress",
          "type": "address"
        },
        {
          "indexed": true,
          "internalType": "address",
          "name": "owner",
          "type": "address"
        },
        {
          "indexed": false,
          "internalType": "address[]",
          "name": "recipients",
          "type": "address[]"
        },
        {
          "indexed": false,
          "internalType": "uint256[]",
          "name": "percentages",
          "type": "uint256[]"
        },
        {
          "indexed": false,
          "internalType": "uint256",
          "name": "timestamp",
          "type": "uint256"
        }
      ],
      "name": "SplitCreated",
      "type": "event"
    },
    {
      "inputs": [
        {
          "internalType": "uint256",
          "name": "",
          "type": "uint256"
        }
      ],
      "name": "allSplits",
      "outputs": [
        {
          "internalType": "address",
          "name": "",
          "type": "address"
        }
      ],
      "stateMutability": "view",
      "type": "function"
    },
    {
      "inputs": [
        {
          "internalType": "address[]",
          "name": "_recipients",
          "type": "address[]"
        },
        {
          "internalType": "uint256[]",
          "name": "_percentages",
          "type": "uint256[]"
        }
      ],
      "name": "createSplit",
      "outputs": [
        {
          "internalType": "address",
          "name": "splitAddress",
          "type": "address"
        }
      ],
      "stateMutability": "nonpayable",
      "type": "function"
    },
    {
      "inputs": [],
      "name": "getAllSplits",
      "outputs": [
        {
          "internalType": "address[]",
          "name": "",
          "type": "address[]"
        }
      ],
      "stateMutability": "view",
      "type": "function"
    },
    {
      "inputs": [],
      "name": "getAllSplitsCount",
      "outputs": [
        {
          "internalType": "uint256",
          "name": "",
          "type": "uint256"
        }
      ],
      "stateMutability": "view",
      "type": "function"
    },
    {
      "inputs": [
        {
          "internalType": "address",
          "name": "owner",
          "type": "address"
        }
      ],
      "name": "getSplitsByOwner",
      "outputs": [
        {
          "internalType": "address[]",
          "name": "",
          "type": "address[]"
        }
      ],
      "stateMutability": "view",
      "type": "function"
    },
    {
      "inputs": [
        {
          "internalType": "address",
          "name": "owner",
          "type": "address"
        }
      ],
      "name": "getSplitsCountByOwner",
      "outputs": [
        {
          "internalType": "uint256",
          "name": "",
          "type": "uint256"
        }
      ],
      "stateMutability": "view",
      "type": "function"
    },
    {
      "inputs": [
        {
          "internalType": "address",
          "name": "",
          "type": "address"
        }
      ],
      "name": "isSplit",
      "outputs": [
        {
          "internalType": "bool",
          "name": "",
          "type": "bool"
        }
      ],
      "stateMutability": "view",
      "type": "function"
    },
    {
      "inputs": [
        {
          "internalType": "address",
          "name": "splitAddress",
          "type": "address"
        }
      ],
      "name": "isValidSplit",
      "outputs": [
        {
          "internalType": "bool",
          "name": "",
          "type": "bool"
        }
      ],
      "stateMutability": "view",
      "type": "function"
    },
    {
      "inputs": [
        {
          "internalType": "address",
          "name": "",
          "type": "address"
        },
        {
          "internalType": "uint256",
          "name": "",
          "type": "uint256"
        }
      ],
      "name": "splitsByOwner",
      "outputs": [
        {
          "internalType": "address",
          "name": "",
          "type": "address"
        }
      ],
      "stateMutability": "view",
      "type": "function"
    }
  ],
  "bytecode": "0x608060405234801561001057600080fd5b5061163f806100206000396000f3fe60806040523480156200001157600080fd5b50600436106200009f5760003560e01c80636f8c842b116200006e5780636f8c842b14620001505780638b8f50311462000159578063befa66451462000190578063c22cda28146200019a578063d8d9d48f14620001b157600080fd5b8063395ca5fa14620000a45780633c785d1b14620000e357806350725fb514620001135780635b006b6b1462000139575b600080fd5b620000d0620000b536600462000593565b6001600160a01b031660009081526001602052604090205490565b6040519081526020015b60405180910390f35b620000fa620000f4366004620005b8565b620001e0565b6040516001600160a01b039091168152602001620000da565b6200012a6200012436600462000593565b6200020b565b604051620000da919062000618565b620000fa6200014a3660046200062d565b62000283565b600054620000d0565b6200017f6200016a36600462000593565b60026020526000908152604090205460ff1681565b6040519015158152602001620000da565b6200012a620002bc565b620000fa620001ab3660046200073e565b62000320565b6200017f620001c236600462000593565b6001600160a01b031660009081526002602052604090205460ff1690565b60008181548110620001f157600080fd5b6000918252602090912001546001600160a01b0316905081565b6001600160a01b0381166000908152600160209081526040918290208054835181840281018401909452808452606093928301828280156200027757602002820191906000526020600020905b81546001600160a01b0316815260019091019060200180831162000258575b50505050509050919050565b60016020528160005260406000208181548110620002a057600080fd5b6000918252602090912001546001600160a01b03169150829050565b606060008054806020026020016040519081016040528092919081815260200182805480156200031657602002820191906000526020600020905b81546001600160a01b03168152600190910190602001808311620002f7575b5050505050905090565b60008251600014806200033557508151835114155b156200035457604051634ec4810560e11b815260040160405180910390fd5b6000805b8451811015620004315760006001600160a01b03168582815181106200038257620003826200080c565b60200260200101516001600160a01b031603620003b25760405163226ccff560e11b815260040160405180910390fd5b838181518110620003c757620003c76200080c565b6020026020010151600003620003f057604051631f3b85d360e01b815260040160405180910390fd5b8381815181106200040557620004056200080c565b6020026020010151826200041a919062000838565b91508062000428816200084e565b91505062000358565b5080606414620004545760405163217475ff60e21b815260040160405180910390fd5b60008484604051620004669062000568565b620004739291906200089c565b604051809103906000f08015801562000490573d6000803e3d6000fd5b5060008054600181810183557f290decd9548b62a8d60345a988386fc84ba6bc95484008f6362f93160ef3e56390910180546001600160a01b0385166001600160a01b0319918216811790925533808552602084815260408087208054808801825590885282882001805490941685179093558386526002905293819020805460ff1916909317909255905192955085935090917f9dbfd0465ff365a4bba7bf3f7dc1587ffbde24461451c1d9fb9ea0a4f027ecf4906200055790899089904290620008ce565b60405180910390a350505b92915050565b610d01806200090983390190565b80356001600160a01b03811681146200058e57600080fd5b919050565b600060208284031215620005a657600080fd5b620005b18262000576565b9392505050565b600060208284031215620005cb57600080fd5b5035919050565b600081518084526020808501945080840160005b838110156200060d5781516001600160a01b031687529582019590820190600101620005e6565b509495945050505050565b602081526000620005b16020830184620005d2565b600080604083850312156200064157600080fd5b6200064c8362000576565b946020939093013593505050565b634e487b7160e01b600052604160045260246000fd5b604051601f8201601f1916810167ffffffffffffffff811182821017156200069c576200069c6200065a565b604052919050565b600067ffffffffffffffff821115620006c157620006c16200065a565b5060051b60200190565b600082601f830112620006dd57600080fd5b81356020620006f6620006f083620006a4565b62000670565b82815260059290921b840181019181810190868411156200071657600080fd5b8286015b848110156200073357803583529183019183016200071a565b509695505050505050565b600080604083850312156200075257600080fd5b823567ffffffffffffffff808211156200076b57600080fd5b818501915085601f8301126200078057600080fd5b8135602062000793620006f083620006a4565b82815260059290921b84018101918181019089841115620007b357600080fd5b948201945b83861015620007dc57620007cc8662000576565b82529482019490820190620007b8565b96505086013592505080821115620007f357600080fd5b506200080285828601620006cb565b9150509250929050565b634e487b7160e01b600052603260045260246000fd5b634e487b7160e01b600052601160045260246000fd5b8082018082111562000562576200056262000822565b60006001820162000863576200086362000822565b5060010190565b600081518084526020808501945080840160005b838110156200060d578151875295820195908201906001016200087e565b604081526000620008b16040830185620005d2565b8281036020840152620008c581856200086a565b95945050505050565b606081526000620008e36060830186620005d2565b8281036020840152620008f781866200086a565b91505082604083015294935050505056fe60a06040523480156200001157600080fd5b5060405162000d0138038062000d01833981016040819052620000349162000344565b6001600055815115806200004a57508051825114155b156200006957604051634ec4810560e11b815260040160405180910390fd5b6000805b8351811015620001465760006001600160a01b031684828151811062000097576200009762000422565b60200260200101516001600160a01b031603620000c75760405163226ccff560e11b815260040160405180910390fd5b828181518110620000dc57620000dc62000422565b60200260200101516000036200010557604051631f3b85d360e01b815260040160405180910390fd5b8281815181106200011a576200011a62000422565b6020026020010151826200012f91906200044e565b9150806200013d816200046a565b9150506200006d565b5080606414620001695760405163217475ff60e21b815260040160405180910390fd5b82516200017e906001906020860190620001a3565b508151620001949060029060208501906200020d565b50503360805250620004869050565b828054828255906000526020600020908101928215620001fb579160200282015b82811115620001fb57825182546001600160a01b0319166001600160a01b03909116178255602090920191600190910190620001c4565b50620002099291506200024b565b5090565b828054828255906000526020600020908101928215620001fb579160200282015b82811115620001fb5782518255916020019190600101906200022e565b5b808211156200020957600081556001016200024c565b634e487b7160e01b600052604160045260246000fd5b604051601f8201601f191681016001600160401b0381118282101715620002a357620002a362000262565b604052919050565b60006001600160401b03821115620002c757620002c762000262565b5060051b60200190565b600082601f830112620002e357600080fd5b81516020620002fc620002f683620002ab565b62000278565b82815260059290921b840181019181810190868411156200031c57600080fd5b8286015b8481101562000339578051835291830191830162000320565b509695505050505050565b600080604083850312156200035857600080fd5b82516001600160401b03808211156200037057600080fd5b818501915085601f8301126200038557600080fd5b8151602062000398620002f683620002ab565b82815260059290921b84018101918181019089841115620003b857600080fd5b948201945b83861015620003ef5785516001600160a01b0381168114620003df5760008081fd5b82529482019490820190620003bd565b918801519196509093505050808211156200040957600080fd5b506200041885828601620002d1565b9150509250929050565b634e487b7160e01b600052603260045260246000fd5b634e487b7160e01b600052601160045260246000fd5b8082018082111562000464576200046462000438565b92915050565b6000600182016200047f576200047f62000438565b5060010190565b60805161085f620004a26000396000610166015261085f6000f3fe60806040526004361061007f5760003560e01c8063d1bc76a11161004e578063d1bc76a1146101a0578063e4fc6b6d146101c0578063efca2eed146101d5578063f8858386146101eb57600080fd5b8063221b17db146100ce5780633dd1ae59146100f25780636d0cee75146101155780638da5cb5b1461015457600080fd5b366100c95760405134815233907f8e47b87b0ef542cdfa1659c551d88bad38aa7f452d2bbb349ab7530dfec8be8f9060200160405180910390a234156100c7576100c761020b565b005b600080fd5b3480156100da57600080fd5b506001545b6040519081526020015b60405180910390f35b3480156100fe57600080fd5b506101076104f1565b6040516100e99291906106e2565b34801561012157600080fd5b50610135610130366004610766565b6105ae565b604080516001600160a01b0390931683526020830191909152016100e9565b34801561016057600080fd5b506101887f000000000000000000000000000000000000000000000000000000000000000081565b6040516001600160a01b0390911681526020016100e9565b3480156101ac57600080fd5b506101886101bb366004610766565b610651565b3480156101cc57600080fd5b506100c761067b565b3480156101e157600080fd5b506100df60035481565b3480156101f757600080fd5b506100df610206366004610766565b610697565b47600081900361022e576040516318f5992f60e21b815260040160405180910390fd5b8060005b600180546102409190610795565b81101561038e57600060646002838154811061025e5761025e6107ae565b90600052602060002001548561027491906107c4565b61027e91906107db565b905061028a8184610795565b92506000600183815481106102a1576102a16107ae565b60009182526020822001546040516001600160a01b039091169184919081818185875af1925050503d80600081146102f5576040519150601f19603f3d011682016040523d82523d6000602084013e6102fa565b606091505b505090508061031c576040516312171d8360e31b815260040160405180910390fd5b6001838154811061032f5761032f6107ae565b600091825260209182902001546040518481526001600160a01b03909116917f3345dff52f7d4d803cbf38e3ea1336038dbc4bb99a73a70c4d64d32ed47ab635910160405180910390a250508080610386906107fd565b915050610232565b50801561049e5760018054600091906103a8908290610795565b815481106103b8576103b86107ae565b60009182526020822001546040516001600160a01b039091169184919081818185875af1925050503d806000811461040c576040519150601f19603f3d011682016040523d82523d6000602084013e610411565b606091505b5050905080610433576040516312171d8360e31b815260040160405180910390fd5b60018054610442908290610795565b81548110610452576104526107ae565b600091825260209182902001546040518481526001600160a01b03909116917f3345dff52f7d4d803cbf38e3ea1336038dbc4bb99a73a70c4d64d32ed47ab635910160405180910390a2505b81600360008282546104b09190610816565b9091555050604080518381524260208201527f40d8c854b6d5329fd5fccae04f5a931d7529963fbab81aced7337394e737cb4d910160405180910390a15050565b606080600160028180548060200260200160405190810160405280929190818152602001828054801561054d57602002820191906000526020600020905b81546001600160a01b0316815260019091019060200180831161052f575b505050505091508080548060200260200160405190810160405280929190818152602001828054801561059f57602002820191906000526020600020905b81548152602001906001019080831161058b575b50505050509050915091509091565b600154600090819083106105fe5760405162461bcd60e51b8152602060048201526013602482015272496e646578206f7574206f6620626f756e647360681b604482015260640160405180910390fd5b60018381548110610611576106116107ae565b600091825260209091200154600280546001600160a01b03909216918590811061063d5761063d6107ae565b906000526020600020015491509150915091565b6001818154811061066157600080fd5b6000918252602090912001546001600160a01b0316905081565b6106836106b8565b61068b61020b565b6106956001600055565b565b600281815481106106a757600080fd5b600091825260209091200154905081565b6002600054036106db57604051633ee5aeb560e01b815260040160405180910390fd5b6002600055565b604080825283519082018190526000906020906060840190828701845b828110156107245781516001600160a01b0316845292840192908401906001016106ff565b5050508381038285015284518082528583019183019060005b818110156107595783518352928401929184019160010161073d565b5090979650505050505050565b60006020828403121561077857600080fd5b5035919050565b634e487b7160e01b600052601160045260246000fd5b818103818111156107a8576107a861077f565b92915050565b634e487b7160e01b600052603260045260246000fd5b80820281158282048414176107a8576107a861077f565b6000826107f857634e487b7160e01b600052601260045260246000fd5b500490565b60006001820161080f5761080f61077f565b5060010190565b808201808211156107a8576107a861077f56fea2646970667358221220afa9e58d11bf24c0e061addc1eb746097922eeec39d0293523e323023c2e5d9164736f6c63430008140033a2646970667358221220bc9f02e0022b1fcaea012fd0f900a7545d8a39b451ce73a6385cd428eb361eb064736f6c63430008140033",
  "linkReferences": {},
  "deployedLinkReferences": {}
}