{"contracts/SplitBase.sol":{"SplitBase":{"abi":[{"inputs":[{"internalType":"address[]","name":"_recipients","type":"address[]"},{"internalType":"uint256[]","name":"_percentages","type":"uint256[]"}],"stateMutability":"nonpayable","type":"constructor"},{"inputs":[],"name":"InvalidArrayLength","type":"error"},{"inputs":[],"name":"InvalidPercentage","type":"error"},{"inputs":[],"name":"InvalidRecipientAddress","type":"error"},{"inputs":[],"name":"NoFundsToDistribute","type":"error"},{"inputs":[],"name":"PercentagesMustSumTo100","type":"error"},{"inputs":[],"name":"ReentrancyGuardReentrantCall","type":"error"},{"inputs":[],"name":"TransferFailed","type":"error"},{"anonymous":false,"inputs":[{"indexed":false,"internalType":"uint256","name":"amount","type":"uint256"},{"indexed":false,"internalType":"uint256","name":"timestamp","type":"uint256"}],"name":"FundsDistributed","type":"event"},{"anonymous":false,"inputs":[{"indexed":true,"internalType":"address","name":"from","type":"address"},{"indexed":false,"internalType":"uint256","name":"amount","type":"uint256"}],"name":"FundsReceived","type":"event"},{"anonymous":false,"inputs":[{"indexed":true,"internalType":"address","name":"recipient","type":"address"},{"indexed":false,"internalType":"uint256","name":"amount","type":"uint256"}],"name":"RecipientPaid","type":"event"},{"inputs":[],"name":"distribute","outputs":[],"stateMutability":"nonpayable","type":"function"},{"inputs":[{"internalType":"uint256","name":"index","type":"uint256"}],"name":"getRecipient","outputs":[{"internalType":"address","name":"recipient","type":"address"},{"internalType":"uint256","name":"percentage","type":"uint256"}],"stateMutability":"view","type":"function"},{"inputs":[],"name":"getRecipientsCount","outputs":[{"internalType":"uint256","name":"","type":"uint256"}],"stateMutability":"view","type":"function"},{"inputs":[],"name":"getSplitDetails","outputs":[{"internalType":"address[]","name":"","type":"address[]"},{"internalType":"uint256[]","name":"","type":"uint256[]"}],"stateMutability":"view","type":"function"},{"inputs":[],"name":"owner","outputs":[{"internalType":"address","name":"","type":"address"}],"stateMutability":"view","type":"function"},{"inputs":[{"internalType":"uint256","name":"","type":"uint256"}],"name":"percentages","outputs":[{"internalType":"uint256","name":"","type":"uint256"}],"stateMutability":"view","type":"function"},{"inputs":[{"internalType":"uint256","name":"","type":"uint256"}],"name":"recipients","outputs":[{"internalType":"address","name":"","type":"address"}],"stateMutability":"view","type":"function"},{"inputs":[],"name":"totalDistributed","outputs":[{"internalType":"uint256","name":"","type":"uint256"}],"stateMutability":"view","type":"function"},{"stateMutability":"payable","type":"receive"}],"evm":{"bytecode":{"linkReferences":{},"object":"60a06040523480156200001157600080fd5b5060405162000d0138038062000d01833981016040819052620000349162000344565b6001600055815115806200004a57508051825114155b156200006957604051634ec4810560e11b815260040160405180910390fd5b6000805b8351811015620001465760006001600160a01b031684828151811062000097576200009762000422565b60200260200101516001600160a01b031603620000c75760405163226ccff560e11b815260040160405180910390fd5b828181518110620000dc57620000dc62000422565b60200260200101516000036200010557604051631f3b85d360e01b815260040160405180910390fd5b8281815181106200011a576200011a62000422565b6020026020010151826200012f91906200044e565b9150806200013d816200046a565b9150506200006d565b5080606414620001695760405163217475ff60e21b815260040160405180910390fd5b82516200017e906001906020860190620001a3565b508151620001949060029060208501906200020d565b50503360805250620004869050565b828054828255906000526020600020908101928215620001fb579160200282015b82811115620001fb57825182546001600160a01b0319166001600160a01b03909116178255602090920191600190910190620001c4565b50620002099291506200024b565b5090565b828054828255906000526020600020908101928215620001fb579160200282015b82811115620001fb5782518255916020019190600101906200022e565b5b808211156200020957600081556001016200024c565b634e487b7160e01b600052604160045260246000fd5b604051601f8201601f191681016001600160401b0381118282101715620002a357620002a362000262565b604052919050565b60006001600160401b03821115620002c757620002c762000262565b5060051b60200190565b600082601f830112620002e357600080fd5b81516020620002fc620002f683620002ab565b62000278565b82815260059290921b840181019181810190868411156200031c57600080fd5b8286015b8481101562000339578051835291830191830162000320565b509695505050505050565b600080604083850312156200035857600080fd5b82516001600160401b03808211156200037057600080fd5b818501915085601f8301126200038557600080fd5b8151602062000398620002f683620002ab565b82815260059290921b84018101918181019089841115620003b857600080fd5b948201945b83861015620003ef5785516001600160a01b0381168114620003df5760008081fd5b82529482019490820190620003bd565b918801519196509093505050808211156200040957600080fd5b506200041885828601620002d1565b9150509250929050565b634e487b7160e01b600052603260045260246000fd5b634e487b7160e01b600052601160045260246000fd5b8082018082111562000464576200046462000438565b92915050565b6000600182016200047f576200047f62000438565b5060010190565b60805161085f620004a26000396000610166015261085f6000f3fe60806040526004361061007f5760003560e01c8063d1bc76a11161004e578063d1bc76a1146101a0578063e4fc6b6d146101c0578063efca2eed146101d5578063f8858386146101eb57600080fd5b8063221b17db146100ce5780633dd1ae59146100f25780636d0cee75146101155780638da5cb5b1461015457600080fd5b366100c95760405134815233907f8e47b87b0ef542cdfa1659c551d88bad38aa7f452d2bbb349ab7530dfec8be8f9060200160405180910390a234156100c7576100c761020b565b005b600080fd5b3480156100da57600080fd5b506001545b6040519081526020015b60405180910390f35b3480156100fe57600080fd5b506101076104f1565b6040516100e99291906106e2565b34801561012157600080fd5b50610135610130366004610766565b6105ae565b604080516001600160a01b0390931683526020830191909152016100e9565b34801561016057600080fd5b506101887f000000000000000000000000000000000000000000000000000000000000000081565b6040516001600160a01b0390911681526020016100e9565b3480156101ac57600080fd5b506101886101bb366004610766565b610651565b3480156101cc57600080fd5b506100c761067b565b3480156101e157600080fd5b506100df60035481565b3480156101f757600080fd5b506100df610206366004610766565b610697565b47600081900361022e576040516318f5992f60e21b815260040160405180910390fd5b8060005b600180546102409190610795565b81101561038e57600060646002838154811061025e5761025e6107ae565b90600052602060002001548561027491906107c4565b61027e91906107db565b905061028a8184610795565b92506000600183815481106102a1576102a16107ae565b60009182526020822001546040516001600160a01b039091169184919081818185875af1925050503d80600081146102f5576040519150601f19603f3d011682016040523d82523d6000602084013e6102fa565b606091505b505090508061031c576040516312171d8360e31b815260040160405180910390fd5b6001838154811061032f5761032f6107ae565b600091825260209182902001546040518481526001600160a01b03909116917f3345dff52f7d4d803cbf38e3ea1336038dbc4bb99a73a70c4d64d32ed47ab635910160405180910390a250508080610386906107fd565b915050610232565b50801561049e5760018054600091906103a8908290610795565b815481106103b8576103b86107ae565b60009182526020822001546040516001600160a01b039091169184919081818185875af1925050503d806000811461040c576040519150601f19603f3d011682016040523d82523d6000602084013e610411565b606091505b5050905080610433576040516312171d8360e31b815260040160405180910390fd5b60018054610442908290610795565b81548110610452576104526107ae565b600091825260209182902001546040518481526001600160a01b03909116917f3345dff52f7d4d803cbf38e3ea1336038dbc4bb99a73a70c4d64d32ed47ab635910160405180910390a2505b81600360008282546104b09190610816565b9091555050604080518381524260208201527f40d8c854b6d5329fd5fccae04f5a931d7529963fbab81aced7337394e737cb4d910160405180910390a15050565b606080600160028180548060200260200160405190810160405280929190818152602001828054801561054d57602002820191906000526020600020905b81546001600160a01b0316815260019091019060200180831161052f575b505050505091508080548060200260200160405190810160405280929190818152602001828054801561059f57602002820191906000526020600020905b81548152602001906001019080831161058b575b50505050509050915091509091565b600154600090819083106105fe5760405162461bcd60e51b8152602060048201526013602482015272496e646578206f7574206f6620626f756e647360681b604482015260640160405180910390fd5b60018381548110610611576106116107ae565b600091825260209091200154600280546001600160a01b03909216918590811061063d5761063d6107ae565b906000526020600020015491509150915091565b6001818154811061066157600080fd5b6000918252602090912001546001600160a01b0316905081565b6106836106b8565b61068b61020b565b6106956001600055565b565b600281815481106106a757600080fd5b600091825260209091200154905081565b6002600054036106db57604051633ee5aeb560e01b815260040160405180910390fd5b6002600055565b604080825283519082018190526000906020906060840190828701845b828110156107245781516001600160a01b0316845292840192908401906001016106ff565b5050508381038285015284518082528583019183019060005b818110156107595783518352928401929184019160010161073d565b5090979650505050505050565b60006020828403121561077857600080fd5b5035919050565b634e487b7160e01b600052601160045260246000fd5b818103818111156107a8576107a861077f565b92915050565b634e487b7160e01b600052603260045260246000fd5b80820281158282048414176107a8576107a861077f565b6000826107f857634e487b7160e01b600052601260045260246000fd5b500490565b60006001820161080f5761080f61077f565b5060010190565b808201808211156107a8576107a861077f56fea2646970667358221220afa9e58d11bf24c0e061addc1eb746097922eeec39d0293523e323023c2e5d9164736f6c63430008140033","opcodes":"PUSH1 0xA0 PUSH1 0x40 MSTORE CALLVALUE DUP1 ISZERO PUSH3 0x11 JUMPI PUSH1 0x0 DUP1 REVERT JUMPDEST POP PUSH1 0x40 MLOAD PUSH3 0xD01 CODESIZE SUB DUP1 PUSH3 0xD01 DUP4 CODECOPY DUP2 ADD PUSH1 0x40 DUP2 SWAP1 MSTORE PUSH3 0x34 SWAP2 PUSH3 0x344 JUMP JUMPDEST PUSH1 0x1 PUSH1 0x0 SSTORE DUP2 MLOAD ISZERO DUP1 PUSH3 0x4A JUMPI POP DUP1 MLOAD DUP3 MLOAD EQ ISZERO JUMPDEST ISZERO PUSH3 0x69 JUMPI PUSH1 0x40 MLOAD PUSH4 0x4EC48105 PUSH1 0xE1 SHL DUP2 MSTORE PUSH1 0x4 ADD PUSH1 0x40 MLOAD DUP1 SWAP2 SUB SWAP1 REVERT JUMPDEST PUSH1 0x0 DUP1 JUMPDEST DUP4 MLOAD DUP2 LT ISZERO PUSH3 0x146 JUMPI PUSH1 0x0 PUSH1 0x1 PUSH1 0x1 PUSH1 0xA0 SHL SUB AND DUP5 DUP3 DUP2 MLOAD DUP2 LT PUSH3 0x97 JUMPI PUSH3 0x97 PUSH3 0x422 JUMP JUMPDEST PUSH1 0x20 MUL PUSH1 0x20 ADD ADD MLOAD PUSH1 0x1 PUSH1 0x1 PUSH1 0xA0 SHL SUB AND SUB PUSH3 0xC7 JUMPI PUSH1 0x40 MLOAD PUSH4 0x226CCFF5 PUSH1 0xE1 SHL DUP2 MSTORE PUSH1 0x4 ADD PUSH1 0x40 MLOAD DUP1 SWAP2 SUB SWAP1 REVERT JUMPDEST DUP3 DUP2 DUP2 MLOAD DUP2 LT PUSH3 0xDC JUMPI PUSH3 0xDC PUSH3 0x422 JUMP JUMPDEST PUSH1 0x20 MUL PUSH1 0x20 ADD ADD MLOAD PUSH1 0x0 SUB PUSH3 0x105 JUMPI PUSH1 0x40 MLOAD PUSH4 0x1F3B85D3 PUSH1 0xE0 SHL DUP2 MSTORE PUSH1 0x4 ADD PUSH1 0x40 MLOAD DUP1 SWAP2 SUB SWAP1 REVERT JUMPDEST DUP3 DUP2 DUP2 MLOAD DUP2 LT PUSH3 0x11A JUMPI PUSH3 0x11A PUSH3 0x422 JUMP JUMPDEST PUSH1 0x20 MUL PUSH1 0x20 ADD ADD MLOAD DUP3 PUSH3 0x12F SWAP2 SWAP1 PUSH3 0x44E JUMP JUMPDEST SWAP2 POP DUP1 PUSH3 0x13D DUP2 PUSH3 0x46A JUMP JUMPDEST SWAP2 POP POP PUSH3 0x6D JUMP JUMPDEST POP DUP1 PUSH1 0x64 EQ PUSH3 0x169 JUMPI PUSH1 0x40 MLOAD PUSH4 0x217475FF PUSH1 0xE2 SHL DUP2 MSTORE PUSH1 0x4 ADD PUSH1 0x40 MLOAD DUP1 SWAP2 SUB SWAP1 REVERT JUMPDEST DUP3 MLOAD PUSH3 0x17E SWAP1 PUSH1 0x1 SWAP1 PUSH1 0x20 DUP7 ADD SWAP1 PUSH3 0x1A3 JUMP JUMPDEST POP DUP2 MLOAD PUSH3 0x194 SWAP1 PUSH1 0x2 SWAP1 PUSH1 0x20 DUP6 ADD SWAP1 PUSH3 0x20D JUMP JUMPDEST POP POP CALLER PUSH1 0x80 MSTORE POP PUSH3 0x486 SWAP1 POP JUMP JUMPDEST DUP3 DUP1 SLOAD DUP3 DUP3 SSTORE SWAP1 PUSH1 0x0 MSTORE PUSH1 0x20 PUSH1 0x0 KECCAK256 SWAP1 DUP2 ADD SWAP3 DUP3 ISZERO PUSH3 0x1FB JUMPI SWAP2 PUSH1 0x20 MUL DUP3 ADD JUMPDEST DUP3 DUP2 GT ISZERO PUSH3 0x1FB JUMPI DUP3 MLOAD DUP3 SLOAD PUSH1 0x1 PUSH1 0x1 PUSH1 0xA0 SHL SUB NOT AND PUSH1 0x1 PUSH1 0x1 PUSH1 0xA0 SHL SUB SWAP1 SWAP2 AND OR DUP3 SSTORE PUSH1 0x20 SWAP1 SWAP3 ADD SWAP2 PUSH1 0x1 SWAP1 SWAP2 ADD SWAP1 PUSH3 0x1C4 JUMP JUMPDEST POP PUSH3 0x209 SWAP3 SWAP2 POP PUSH3 0x24B JUMP JUMPDEST POP SWAP1 JUMP JUMPDEST DUP3 DUP1 SLOAD DUP3 DUP3 SSTORE SWAP1 PUSH1 0x0 MSTORE PUSH1 0x20 PUSH1 0x0 KECCAK256 SWAP1 DUP2 ADD SWAP3 DUP3 ISZERO PUSH3 0x1FB JUMPI SWAP2 PUSH1 0x20 MUL DUP3 ADD JUMPDEST DUP3 DUP2 GT ISZERO PUSH3 0x1FB JUMPI DUP3 MLOAD DUP3 SSTORE SWAP2 PUSH1 0x20 ADD SWAP2 SWAP1 PUSH1 0x1 ADD SWAP1 PUSH3 0x22E JUMP JUMPDEST JUMPDEST DUP1 DUP3 GT ISZERO PUSH3 0x209 JUMPI PUSH1 0x0 DUP2 SSTORE PUSH1 0x1 ADD PUSH3 0x24C JUMP JUMPDEST PUSH4 0x4E487B71 PUSH1 0xE0 SHL PUSH1 0x0 MSTORE PUSH1 0x41 PUSH1 0x4 MSTORE PUSH1 0x24 PUSH1 0x0 REVERT JUMPDEST PUSH1 0x40 MLOAD PUSH1 0x1F DUP3 ADD PUSH1 0x1F NOT AND DUP2 ADD PUSH1 0x1 PUSH1 0x1 PUSH1 0x40 SHL SUB DUP2 GT DUP3 DUP3 LT OR ISZERO PUSH3 0x2A3 JUMPI PUSH3 0x2A3 PUSH3 0x262 JUMP JUMPDEST PUSH1 0x40 MSTORE SWAP2 SWAP1 POP JUMP JUMPDEST PUSH1 0x0 PUSH1 0x1 PUSH1 0x1 PUSH1 0x40 SHL SUB DUP3 GT ISZERO PUSH3 0x2C7 JUMPI PUSH3 0x2C7 PUSH3 0x262 JUMP JUMPDEST POP PUSH1 0x5 SHL PUSH1 0x20 ADD SWAP1 JUMP JUMPDEST PUSH1 0x0 DUP3 PUSH1 0x1F DUP4 ADD SLT PUSH3 0x2E3 JUMPI PUSH1 0x0 DUP1 REVERT JUMPDEST DUP2 MLOAD PUSH1 0x20 PUSH3 0x2FC PUSH3 0x2F6 DUP4 PUSH3 0x2AB JUMP JUMPDEST PUSH3 0x278 JUMP JUMPDEST DUP3 DUP2 MSTORE PUSH1 0x5 SWAP3 SWAP1 SWAP3 SHL DUP5 ADD DUP2 ADD SWAP2 DUP2 DUP2 ADD SWAP1 DUP7 DUP5 GT ISZERO PUSH3 0x31C JUMPI PUSH1 0x0 DUP1 REVERT JUMPDEST DUP3 DUP7 ADD JUMPDEST DUP5 DUP2 LT ISZERO PUSH3 0x339 JUMPI DUP1 MLOAD DUP4 MSTORE SWAP2 DUP4 ADD SWAP2 DUP4 ADD PUSH3 0x320 JUMP JUMPDEST POP SWAP7 SWAP6 POP POP POP POP POP POP JUMP JUMPDEST PUSH1 0x0 DUP1 PUSH1 0x40 DUP4 DUP6 SUB SLT ISZERO PUSH3 0x358 JUMPI PUSH1 0x0 DUP1 REVERT JUMPDEST DUP3 MLOAD PUSH1 0x1 PUSH1 0x1 PUSH1 0x40 SHL SUB DUP1 DUP3 GT ISZERO PUSH3 0x370 JUMPI PUSH1 0x0 DUP1 REVERT JUMPDEST DUP2 DUP6 ADD SWAP2 POP DUP6 PUSH1 0x1F DUP4 ADD SLT PUSH3 0x385 JUMPI PUSH1 0x0 DUP1 REVERT JUMPDEST DUP2 MLOAD PUSH1 0x20 PUSH3 0x398 PUSH3 0x2F6 DUP4 PUSH3 0x2AB JUMP JUMPDEST DUP3 DUP2 MSTORE PUSH1 0x5 SWAP3 SWAP1 SWAP3 SHL DUP5 ADD DUP2 ADD SWAP2 DUP2 DUP2 ADD SWAP1 DUP10 DUP5 GT ISZERO PUSH3 0x3B8 JUMPI PUSH1 0x0 DUP1 REVERT JUMPDEST SWAP5 DUP3 ADD SWAP5 JUMPDEST DUP4 DUP7 LT ISZERO PUSH3 0x3EF JUMPI DUP6 MLOAD PUSH1 0x1 PUSH1 0x1 PUSH1 0xA0 SHL SUB DUP2 AND DUP2 EQ PUSH3 0x3DF JUMPI PUSH1 0x0 DUP1 DUP2 REVERT JUMPDEST DUP3 MSTORE SWAP5 DUP3 ADD SWAP5 SWAP1 DUP3 ADD SWAP1 PUSH3 0x3BD JUMP JUMPDEST SWAP2 DUP9 ADD MLOAD SWAP2 SWAP7 POP SWAP1 SWAP4 POP POP POP DUP1 DUP3 GT ISZERO PUSH3 0x409 JUMPI PUSH1 0x0 DUP1 REVERT JUMPDEST POP PUSH3 0x418 DUP6 DUP3 DUP7 ADD PUSH3 0x2D1 JUMP JUMPDEST SWAP2 POP POP SWAP3 POP SWAP3 SWAP1 POP JUMP JUMPDEST PUSH4 0x4E487B71 PUSH1 0xE0 SHL PUSH1 0x0 MSTORE PUSH1 0x32 PUSH1 0x4 MSTORE PUSH1 0x24 PUSH1 0x0 REVERT JUMPDEST PUSH4 0x4E487B71 PUSH1 0xE0 SHL PUSH1 0x0 MSTORE PUSH1 0x11 PUSH1 0x4 MSTORE PUSH1 0x24 PUSH1 0x0 REVERT JUMPDEST DUP1 DUP3 ADD DUP1 DUP3 GT ISZERO PUSH3 0x464 JUMPI PUSH3 0x464 PUSH3 0x438 JUMP JUMPDEST SWAP3 SWAP2 POP POP JUMP JUMPDEST PUSH1 0x0 PUSH1 0x1 DUP3 ADD PUSH3 0x47F JUMPI PUSH3 0x47F PUSH3 0x438 JUMP JUMPDEST POP PUSH1 0x1 ADD SWAP1 JUMP JUMPDEST PUSH1 0x80 MLOAD PUSH2 0x85F PUSH3 0x4A2 PUSH1 0x0 CODECOPY PUSH1 0x0 PUSH2 0x166 ADD MSTORE PUSH2 0x85F PUSH1 0x0 RETURN INVALID PUSH1 0x80 PUSH1 0x40 MSTORE PUSH1 0x4 CALLDATASIZE LT PUSH2 0x7F JUMPI PUSH1 0x0 CALLDATALOAD PUSH1 0xE0 SHR DUP1 PUSH4 0xD1BC76A1 GT PUSH2 0x4E JUMPI DUP1 PUSH4 0xD1BC76A1 EQ PUSH2 0x1A0 JUMPI DUP1 PUSH4 0xE4FC6B6D EQ PUSH2 0x1C0 JUMPI DUP1 PUSH4 0xEFCA2EED EQ PUSH2 0x1D5 JUMPI DUP1 PUSH4 0xF8858386 EQ PUSH2 0x1EB JUMPI PUSH1 0x0 DUP1 REVERT JUMPDEST DUP1 PUSH4 0x221B17DB EQ PUSH2 0xCE JUMPI DUP1 PUSH4 0x3DD1AE59 EQ PUSH2 0xF2 JUMPI DUP1 PUSH4 0x6D0CEE75 EQ PUSH2 0x115 JUMPI DUP1 PUSH4 0x8DA5CB5B EQ PUSH2 0x154 JUMPI PUSH1 0x0 DUP1 REVERT JUMPDEST CALLDATASIZE PUSH2 0xC9 JUMPI PUSH1 0x40 MLOAD CALLVALUE DUP2 MSTORE CALLER SWAP1 PUSH32 0x8E47B87B0EF542CDFA1659C551D88BAD38AA7F452D2BBB349AB7530DFEC8BE8F SWAP1 PUSH1 0x20 ADD PUSH1 0x40 MLOAD DUP1 SWAP2 SUB SWAP1 LOG2 CALLVALUE ISZERO PUSH2 0xC7 JUMPI PUSH2 0xC7 PUSH2 0x20B JUMP JUMPDEST STOP JUMPDEST PUSH1 0x0 DUP1 REVERT JUMPDEST CALLVALUE DUP1 ISZERO PUSH2 0xDA JUMPI PUSH1 0x0 DUP1 REVERT JUMPDEST POP PUSH1 0x1 SLOAD JUMPDEST PUSH1 0x40 MLOAD SWAP1 DUP2 MSTORE PUSH1 0x20 ADD JUMPDEST PUSH1 0x40 MLOAD DUP1 SWAP2 SUB SWAP1 RETURN JUMPDEST CALLVALUE DUP1 ISZERO PUSH2 0xFE JUMPI PUSH1 0x0 DUP1 REVERT JUMPDEST POP PUSH2 0x107 PUSH2 0x4F1 JUMP JUMPDEST PUSH1 0x40 MLOAD PUSH2 0xE9 SWAP3 SWAP2 SWAP1 PUSH2 0x6E2 JUMP JUMPDEST CALLVALUE DUP1 ISZERO PUSH2 0x121 JUMPI PUSH1 0x0 DUP1 REVERT JUMPDEST POP PUSH2 0x135 PUSH2 0x130 CALLDATASIZE PUSH1 0x4 PUSH2 0x766 JUMP JUMPDEST PUSH2 0x5AE JUMP JUMPDEST PUSH1 0x40 DUP1 MLOAD PUSH1 0x1 PUSH1 0x1 PUSH1 0xA0 SHL SUB SWAP1 SWAP4 AND DUP4 MSTORE PUSH1 0x20 DUP4 ADD SWAP2 SWAP1 SWAP2 MSTORE ADD PUSH2 0xE9 JUMP JUMPDEST CALLVALUE DUP1 ISZERO PUSH2 0x160 JUMPI PUSH1 0x0 DUP1 REVERT JUMPDEST POP PUSH2 0x188 PUSH32 0x0 DUP2 JUMP JUMPDEST PUSH1 0x40 MLOAD PUSH1 0x1 PUSH1 0x1 PUSH1 0xA0 SHL SUB SWAP1 SWAP2 AND DUP2 MSTORE PUSH1 0x20 ADD PUSH2 0xE9 JUMP JUMPDEST CALLVALUE DUP1 ISZERO PUSH2 0x1AC JUMPI PUSH1 0x0 DUP1 REVERT JUMPDEST POP PUSH2 0x188 PUSH2 0x1BB CALLDATASIZE PUSH1 0x4 PUSH2 0x766 JUMP JUMPDEST PUSH2 0x651 JUMP JUMPDEST CALLVALUE DUP1 ISZERO PUSH2 0x1CC JUMPI PUSH1 0x0 DUP1 REVERT JUMPDEST POP PUSH2 0xC7 PUSH2 0x67B JUMP JUMPDEST CALLVALUE DUP1 ISZERO PUSH2 0x1E1 JUMPI PUSH1 0x0 DUP1 REVERT JUMPDEST POP PUSH2 0xDF PUSH1 0x3 SLOAD DUP2 JUMP JUMPDEST CALLVALUE DUP1 ISZERO PUSH2 0x1F7 JUMPI PUSH1 0x0 DUP1 REVERT JUMPDEST POP PUSH2 0xDF PUSH2 0x206 CALLDATASIZE PUSH1 0x4 PUSH2 0x766 JUMP JUMPDEST PUSH2 0x697 JUMP JUMPDEST SELFBALANCE PUSH1 0x0 DUP2 SWAP1 SUB PUSH2 0x22E JUMPI PUSH1 0x40 MLOAD PUSH4 0x18F5992F PUSH1 0xE2 SHL DUP2 MSTORE PUSH1 0x4 ADD PUSH1 0x40 MLOAD DUP1 SWAP2 SUB SWAP1 REVERT JUMPDEST DUP1 PUSH1 0x0 JUMPDEST PUSH1 0x1 DUP1 SLOAD PUSH2 0x240 SWAP2 SWAP1 PUSH2 0x795 JUMP JUMPDEST DUP2 LT ISZERO PUSH2 0x38E JUMPI PUSH1 0x0 PUSH1 0x64 PUSH1 0x2 DUP4 DUP2 SLOAD DUP2 LT PUSH2 0x25E JUMPI PUSH2 0x25E PUSH2 0x7AE JUMP JUMPDEST SWAP1 PUSH1 0x0 MSTORE PUSH1 0x20 PUSH1 0x0 KECCAK256 ADD SLOAD DUP6 PUSH2 0x274 SWAP2 SWAP1 PUSH2 0x7C4 JUMP JUMPDEST PUSH2 0x27E SWAP2 SWAP1 PUSH2 0x7DB JUMP JUMPDEST SWAP1 POP PUSH2 0x28A DUP2 DUP5 PUSH2 0x795 JUMP JUMPDEST SWAP3 POP PUSH1 0x0 PUSH1 0x1 DUP4 DUP2 SLOAD DUP2 LT PUSH2 0x2A1 JUMPI PUSH2 0x2A1 PUSH2 0x7AE JUMP JUMPDEST PUSH1 0x0 SWAP2 DUP3 MSTORE PUSH1 0x20 DUP3 KECCAK256 ADD SLOAD PUSH1 0x40 MLOAD PUSH1 0x1 PUSH1 0x1 PUSH1 0xA0 SHL SUB SWAP1 SWAP2 AND SWAP2 DUP5 SWAP2 SWAP1 DUP2 DUP2 DUP2 DUP6 DUP8 GAS CALL SWAP3 POP POP POP RETURNDATASIZE DUP1 PUSH1 0x0 DUP2 EQ PUSH2 0x2F5 JUMPI PUSH1 0x40 MLOAD SWAP2 POP PUSH1 0x1F NOT PUSH1 0x3F RETURNDATASIZE ADD AND DUP3 ADD PUSH1 0x40 MSTORE RETURNDATASIZE DUP3 MSTORE RETURNDATASIZE PUSH1 0x0 PUSH1 0x20 DUP5 ADD RETURNDATACOPY PUSH2 0x2FA JUMP JUMPDEST PUSH1 0x60 SWAP2 POP JUMPDEST POP POP SWAP1 POP DUP1 PUSH2 0x31C JUMPI PUSH1 0x40 MLOAD PUSH4 0x12171D83 PUSH1 0xE3 SHL DUP2 MSTORE PUSH1 0x4 ADD PUSH1 0x40 MLOAD DUP1 SWAP2 SUB SWAP1 REVERT JUMPDEST PUSH1 0x1 DUP4 DUP2 SLOAD DUP2 LT PUSH2 0x32F JUMPI PUSH2 0x32F PUSH2 0x7AE JUMP JUMPDEST PUSH1 0x0 SWAP2 DUP3 MSTORE PUSH1 0x20 SWAP2 DUP3 SWAP1 KECCAK256 ADD SLOAD PUSH1 0x40 MLOAD DUP5 DUP2 MSTORE PUSH1 0x1 PUSH1 0x1 PUSH1 0xA0 SHL SUB SWAP1 SWAP2 AND SWAP2 PUSH32 0x3345DFF52F7D4D803CBF38E3EA1336038DBC4BB99A73A70C4D64D32ED47AB635 SWAP2 ADD PUSH1 0x40 MLOAD DUP1 SWAP2 SUB SWAP1 LOG2 POP POP DUP1 DUP1 PUSH2 0x386 SWAP1 PUSH2 0x7FD JUMP JUMPDEST SWAP2 POP POP PUSH2 0x232 JUMP JUMPDEST POP DUP1 ISZERO PUSH2 0x49E JUMPI PUSH1 0x1 DUP1 SLOAD PUSH1 0x0 SWAP2 SWAP1 PUSH2 0x3A8 SWAP1 DUP3 SWAP1 PUSH2 0x795 JUMP JUMPDEST DUP2 SLOAD DUP2 LT PUSH2 0x3B8 JUMPI PUSH2 0x3B8 PUSH2 0x7AE JUMP JUMPDEST PUSH1 0x0 SWAP2 DUP3 MSTORE PUSH1 0x20 DUP3 KECCAK256 ADD SLOAD PUSH1 0x40 MLOAD PUSH1 0x1 PUSH1 0x1 PUSH1 0xA0 SHL SUB SWAP1 SWAP2 AND SWAP2 DUP5 SWAP2 SWAP1 DUP2 DUP2 DUP2 DUP6 DUP8 GAS CALL SWAP3 POP POP POP RETURNDATASIZE DUP1 PUSH1 0x0 DUP2 EQ PUSH2 0x40C JUMPI PUSH1 0x40 MLOAD SWAP2 POP PUSH1 0x1F NOT PUSH1 0x3F RETURNDATASIZE ADD AND DUP3 ADD PUSH1 0x40 MSTORE RETURNDATASIZE DUP3 MSTORE RETURNDATASIZE PUSH1 0x0 PUSH1 0x20 DUP5 ADD RETURNDATACOPY PUSH2 0x411 JUMP JUMPDEST PUSH1 0x60 SWAP2 POP JUMPDEST POP POP SWAP1 POP DUP1 PUSH2 0x433 JUMPI PUSH1 0x40 MLOAD PUSH4 0x12171D83 PUSH1 0xE3 SHL DUP2 MSTORE PUSH1 0x4 ADD PUSH1 0x40 MLOAD DUP1 SWAP2 SUB SWAP1 REVERT JUMPDEST PUSH1 0x1 DUP1 SLOAD PUSH2 0x442 SWAP1 DUP3 SWAP1 PUSH2 0x795 JUMP JUMPDEST DUP2 SLOAD DUP2 LT PUSH2 0x452 JUMPI PUSH2 0x452 PUSH2 0x7AE JUMP JUMPDEST PUSH1 0x0 SWAP2 DUP3 MSTORE PUSH1 0x20 SWAP2 DUP3 SWAP1 KECCAK256 ADD SLOAD PUSH1 0x40 MLOAD DUP5 DUP2 MSTORE PUSH1 0x1 PUSH1 0x1 PUSH1 0xA0 SHL SUB SWAP1 SWAP2 AND SWAP2 PUSH32 0x3345DFF52F7D4D803CBF38E3EA1336038DBC4BB99A73A70C4D64D32ED47AB635 SWAP2 ADD PUSH1 0x40 MLOAD DUP1 SWAP2 SUB SWAP1 LOG2 POP JUMPDEST DUP2 PUSH1 0x3 PUSH1 0x0 DUP3 DUP3 SLOAD PUSH2 0x4B0 SWAP2 SWAP1 PUSH2 0x816 JUMP JUMPDEST SWAP1 SWAP2 SSTORE POP POP PUSH1 0x40 DUP1 MLOAD DUP4 DUP2 MSTORE TIMESTAMP PUSH1 0x20 DUP3 ADD MSTORE PUSH32 0x40D8C854B6D5329FD5FCCAE04F5A931D7529963FBAB81ACED7337394E737CB4D SWAP2 ADD PUSH1 0x40 MLOAD DUP1 SWAP2 SUB SWAP1 LOG1 POP POP JUMP JUMPDEST PUSH1 0x60 DUP1 PUSH1 0x1 PUSH1 0x2 DUP2 DUP1 SLOAD DUP1 PUSH1 0x20 MUL PUSH1 0x20 ADD PUSH1 0x40 MLOAD SWAP1 DUP2 ADD PUSH1 0x40 MSTORE DUP1 SWAP3 SWAP2 SWAP1 DUP2 DUP2 MSTORE PUSH1 0x20 ADD DUP3 DUP1 SLOAD DUP1 ISZERO PUSH2 0x54D JUMPI PUSH1 0x20 MUL DUP3 ADD SWAP2 SWAP1 PUSH1 0x0 MSTORE PUSH1 0x20 PUSH1 0x0 KECCAK256 SWAP1 JUMPDEST DUP2 SLOAD PUSH1 0x1 PUSH1 0x1 PUSH1 0xA0 SHL SUB AND DUP2 MSTORE PUSH1 0x1 SWAP1 SWAP2 ADD SWAP1 PUSH1 0x20 ADD DUP1 DUP4 GT PUSH2 0x52F JUMPI JUMPDEST POP POP POP POP POP SWAP2 POP DUP1 DUP1 SLOAD DUP1 PUSH1 0x20 MUL PUSH1 0x20 ADD PUSH1 0x40 MLOAD SWAP1 DUP2 ADD PUSH1 0x40 MSTORE DUP1 SWAP3 SWAP2 SWAP1 DUP2 DUP2 MSTORE PUSH1 0x20 ADD DUP3 DUP1 SLOAD DUP1 ISZERO PUSH2 0x59F JUMPI PUSH1 0x20 MUL DUP3 ADD SWAP2 SWAP1 PUSH1 0x0 MSTORE PUSH1 0x20 PUSH1 0x0 KECCAK256 SWAP1 JUMPDEST DUP2 SLOAD DUP2 MSTORE PUSH1 0x20 ADD SWAP1 PUSH1 0x1 ADD SWAP1 DUP1 DUP4 GT PUSH2 0x58B JUMPI JUMPDEST POP POP POP POP POP SWAP1 POP SWAP2 POP SWAP2 POP SWAP1 SWAP2 JUMP JUMPDEST PUSH1 0x1 SLOAD PUSH1 0x0 SWAP1 DUP2 SWAP1 DUP4 LT PUSH2 0x5FE JUMPI PUSH1 0x40 MLOAD PUSH3 0x461BCD PUSH1 0xE5 SHL DUP2 MSTORE PUSH1 0x20 PUSH1 0x4 DUP3 ADD MSTORE PUSH1 0x13 PUSH1 0x24 DUP3 ADD MSTORE PUSH19 0x496E646578206F7574206F6620626F756E6473 PUSH1 0x68 SHL PUSH1 0x44 DUP3 ADD MSTORE PUSH1 0x64 ADD PUSH1 0x40 MLOAD DUP1 SWAP2 SUB SWAP1 REVERT JUMPDEST PUSH1 0x1 DUP4 DUP2 SLOAD DUP2 LT PUSH2 0x611 JUMPI PUSH2 0x611 PUSH2 0x7AE JUMP JUMPDEST PUSH1 0x0 SWAP2 DUP3 MSTORE PUSH1 0x20 SWAP1 SWAP2 KECCAK256 ADD SLOAD PUSH1 0x2 DUP1 SLOAD PUSH1 0x1 PUSH1 0x1 PUSH1 0xA0 SHL SUB SWAP1 SWAP3 AND SWAP2 DUP6 SWAP1 DUP2 LT PUSH2 0x63D JUMPI PUSH2 0x63D PUSH2 0x7AE JUMP JUMPDEST SWAP1 PUSH1 0x0 MSTORE PUSH1 0x20 PUSH1 0x0 KECCAK256 ADD SLOAD SWAP2 POP SWAP2 POP SWAP2 POP SWAP2 JUMP JUMPDEST PUSH1 0x1 DUP2 DUP2 SLOAD DUP2 LT PUSH2 0x661 JUMPI PUSH1 0x0 DUP1 REVERT JUMPDEST PUSH1 0x0 SWAP2 DUP3 MSTORE PUSH1 0x20 SWAP1 SWAP2 KECCAK256 ADD SLOAD PUSH1 0x1 PUSH1 0x1 PUSH1 0xA0 SHL SUB AND SWAP1 POP DUP2 JUMP JUMPDEST PUSH2 0x683 PUSH2 0x6B8 JUMP JUMPDEST PUSH2 0x68B PUSH2 0x20B JUMP JUMPDEST PUSH2 0x695 PUSH1 0x1 PUSH1 0x0 SSTORE JUMP JUMPDEST JUMP JUMPDEST PUSH1 0x2 DUP2 DUP2 SLOAD DUP2 LT PUSH2 0x6A7 JUMPI PUSH1 0x0 DUP1 REVERT JUMPDEST PUSH1 0x0 SWAP2 DUP3 MSTORE PUSH1 0x20 SWAP1 SWAP2 KECCAK256 ADD SLOAD SWAP1 POP DUP2 JUMP JUMPDEST PUSH1 0x2 PUSH1 0x0 SLOAD SUB PUSH2 0x6DB JUMPI PUSH1 0x40 MLOAD PUSH4 0x3EE5AEB5 PUSH1 0xE0 SHL DUP2 MSTORE PUSH1 0x4 ADD PUSH1 0x40 MLOAD DUP1 SWAP2 SUB SWAP1 REVERT JUMPDEST PUSH1 0x2 PUSH1 0x0 SSTORE JUMP JUMPDEST PUSH1 0x40 DUP1 DUP3 MSTORE DUP4 MLOAD SWAP1 DUP3 ADD DUP2 SWAP1 MSTORE PUSH1 0x0 SWAP1 PUSH1 0x20 SWAP1 PUSH1 0x60 DUP5 ADD SWAP1 DUP3 DUP8 ADD DUP5 JUMPDEST DUP3 DUP2 LT ISZERO PUSH2 0x724 JUMPI DUP2 MLOAD PUSH1 0x1 PUSH1 0x1 PUSH1 0xA0 SHL SUB AND DUP5 MSTORE SWAP3 DUP5 ADD SWAP3 SWAP1 DUP5 ADD SWAP1 PUSH1 0x1 ADD PUSH2 0x6FF JUMP JUMPDEST POP POP POP DUP4 DUP2 SUB DUP3 DUP6 ADD MSTORE DUP5 MLOAD DUP1 DUP3 MSTORE DUP6 DUP4 ADD SWAP2 DUP4 ADD SWAP1 PUSH1 0x0 JUMPDEST DUP2 DUP2 LT ISZERO PUSH2 0x759 JUMPI DUP4 MLOAD DUP4 MSTORE SWAP3 DUP5 ADD SWAP3 SWAP2 DUP5 ADD SWAP2 PUSH1 0x1 ADD PUSH2 0x73D JUMP JUMPDEST POP SWAP1 SWAP8 SWAP7 POP POP POP POP POP POP POP JUMP JUMPDEST PUSH1 0x0 PUSH1 0x20 DUP3 DUP5 SUB SLT ISZERO PUSH2 0x778 JUMPI PUSH1 0x0 DUP1 REVERT JUMPDEST POP CALLDATALOAD SWAP2 SWAP1 POP JUMP JUMPDEST PUSH4 0x4E487B71 PUSH1 0xE0 SHL PUSH1 0x0 MSTORE PUSH1 0x11 PUSH1 0x4 MSTORE PUSH1 0x24 PUSH1 0x0 REVERT JUMPDEST DUP2 DUP2 SUB DUP2 DUP2 GT ISZERO PUSH2 0x7A8 JUMPI PUSH2 0x7A8 PUSH2 0x77F JUMP JUMPDEST SWAP3 SWAP2 POP POP JUMP JUMPDEST PUSH4 0x4E487B71 PUSH1 0xE0 SHL PUSH1 0x0 MSTORE PUSH1 0x32 PUSH1 0x4 MSTORE PUSH1 0x24 PUSH1 0x0 REVERT JUMPDEST DUP1 DUP3 MUL DUP2 ISZERO DUP3 DUP3 DIV DUP5 EQ OR PUSH2 0x7A8 JUMPI PUSH2 0x7A8 PUSH2 0x77F JUMP JUMPDEST PUSH1 0x0 DUP3 PUSH2 0x7F8 JUMPI PUSH4 0x4E487B71 PUSH1 0xE0 SHL PUSH1 0x0 MSTORE PUSH1 0x12 PUSH1 0x4 MSTORE PUSH1 0x24 PUSH1 0x0 REVERT JUMPDEST POP DIV SWAP1 JUMP JUMPDEST PUSH1 0x0 PUSH1 0x1 DUP3 ADD PUSH2 0x80F JUMPI PUSH2 0x80F PUSH2 0x77F JUMP JUMPDEST POP PUSH1 0x1 ADD SWAP1 JUMP JUMPDEST DUP1 DUP3 ADD DUP1 DUP3 GT ISZERO PUSH2 0x7A8 JUMPI PUSH2 0x7A8 PUSH2 0x77F JUMP INVALID LOG2 PUSH5 0x6970667358 0x22 SLT KECCAK256 0xAF 0xA9 0xE5 DUP14 GT 0xBF 0x24 0xC0 0xE0 PUSH2 0xADDC 0x1E 0xB7 CHAINID MULMOD PUSH26 0x22EEEC39D0293523E323023C2E5D9164736F6C63430008140033 "},"methodIdentifiers":{"distribute()":"e4fc6b6d","getRecipient(uint256)":"6d0cee75","getRecipientsCount()":"221b17db","getSplitDetails()":"3dd1ae59","owner()":"8da5cb5b","percentages(uint256)":"f8858386","recipients(uint256)":"d1bc76a1","totalDistributed()":"efca2eed"}}}}}