{"contracts/SplitFactory.sol":{"SplitFactory":{"abi":[{"inputs":[],"name":"InvalidArrayLength","type":"error"},{"inputs":[],"name":"InvalidPercentage","type":"error"},{"inputs":[],"name":"InvalidRecipientAddress","type":"error"},{"inputs":[],"name":"PercentagesMustSumTo100","type":"error"},{"anonymous":false,"inputs":[{"indexed":true,"internalType":"address","name":"splitAddress","type":"address"},{"indexed":true,"internalType":"address","name":"owner","type":"address"},{"indexed":false,"internalType":"address[]","name":"recipients","type":"address[]"},{"indexed":false,"internalType":"uint256[]","name":"percentages","type":"uint256[]"},{"indexed":false,"internalType":"uint256","name":"timestamp","type":"uint256"}],"name":"SplitCreated","type":"event"},{"inputs":[{"internalType":"uint256","name":"","type":"uint256"}],"name":"allSplits","outputs":[{"internalType":"address","name":"","type":"address"}],"stateMutability":"view","type":"function"},{"inputs":[{"internalType":"address[]","name":"_recipients","type":"address[]"},{"internalType":"uint256[]","name":"_percentages","type":"uint256[]"}],"name":"createSplit","outputs":[{"internalType":"address","name":"splitAddress","type":"address"}],"stateMutability":"nonpayable","type":"function"},{"inputs":[],"name":"getAllSplits","outputs":[{"internalType":"address[]","name":"","type":"address[]"}],"stateMutability":"view","type":"function"},{"inputs":[],"name":"getAllSplitsCount","outputs":[{"internalType":"uint256","name":"","type":"uint256"}],"stateMutability":"view","type":"function"},{"inputs":[{"internalType":"address","name":"owner","type":"address"}],"name":"getSplitsByOwner","outputs":[{"internalType":"address[]","name":"","type":"address[]"}],"stateMutability":"view","type":"function"},{"inputs":[{"internalType":"address","name":"owner","type":"address"}],"name":"getSplitsCountByOwner","outputs":[{"internalType":"uint256","name":"","type":"uint256"}],"stateMutability":"view","type":"function"},{"inputs":[{"internalType":"address","name":"","type":"address"}],"name":"isSplit","outputs":[{"internalType":"bool","name":"","type":"bool"}],"stateMutability":"view","type":"function"},{"inputs":[{"internalType":"address","name":"splitAddress","type":"address"}],"name":"isValidSplit","outputs":[{"internalType":"bool","name":"","type":"bool"}],"stateMutability":"view","type":"function"},{"inputs":[{"internalType":"address","name":"","type":"address"},{"internalType":"uint256","name":"","type":"uint256"}],"name":"splitsByOwner","outputs":[{"internalType":"address","name":"","type":"address"}],"stateMutability":"view","type":"function"}],"evm":{"bytecode":{"linkReferences":{},"object":"608060405234801561001057600080fd5b5061163f806100206000396000f3fe60806040523480156200001157600080fd5b50600436106200009f5760003560e01c80636f8c842b116200006e5780636f8c842b14620001505780638b8f50311462000159578063befa66451462000190578063c22cda28146200019a578063d8d9d48f14620001b157600080fd5b8063395ca5fa14620000a45780633c785d1b14620000e357806350725fb514620001135780635b006b6b1462000139575b600080fd5b620000d0620000b536600462000593565b6001600160a01b031660009081526001602052604090205490565b6040519081526020015b60405180910390f35b620000fa620000f4366004620005b8565b620001e0565b6040516001600160a01b039091168152602001620000da565b6200012a6200012436600462000593565b6200020b565b604051620000da919062000618565b620000fa6200014a3660046200062d565b62000283565b600054620000d0565b6200017f6200016a36600462000593565b60026020526000908152604090205460ff1681565b6040519015158152602001620000da565b6200012a620002bc565b620000fa620001ab3660046200073e565b62000320565b6200017f620001c236600462000593565b6001600160a01b031660009081526002602052604090205460ff1690565b60008181548110620001f157600080fd5b6000918252602090912001546001600160a01b0316905081565b6001600160a01b0381166000908152600160209081526040918290208054835181840281018401909452808452606093928301828280156200027757602002820191906000526020600020905b81546001600160a01b0316815260019091019060200180831162000258575b50505050509050919050565b60016020528160005260406000208181548110620002a057600080fd5b6000918252602090912001546001600160a01b03169150829050565b606060008054806020026020016040519081016040528092919081815260200182805480156200031657602002820191906000526020600020905b81546001600160a01b03168152600190910190602001808311620002f7575b5050505050905090565b60008251600014806200033557508151835114155b156200035457604051634ec4810560e11b815260040160405180910390fd5b6000805b8451811015620004315760006001600160a01b03168582815181106200038257620003826200080c565b60200260200101516001600160a01b031603620003b25760405163226ccff560e11b815260040160405180910390fd5b838181518110620003c757620003c76200080c565b6020026020010151600003620003f057604051631f3b85d360e01b815260040160405180910390fd5b8381815181106200040557620004056200080c565b6020026020010151826200041a919062000838565b91508062000428816200084e565b91505062000358565b5080606414620004545760405163217475ff60e21b815260040160405180910390fd5b60008484604051620004669062000568565b620004739291906200089c565b604051809103906000f08015801562000490573d6000803e3d6000fd5b5060008054600181810183557f290decd9548b62a8d60345a988386fc84ba6bc95484008f6362f93160ef3e56390910180546001600160a01b0385166001600160a01b0319918216811790925533808552602084815260408087208054808801825590885282882001805490941685179093558386526002905293819020805460ff1916909317909255905192955085935090917f9dbfd0465ff365a4bba7bf3f7dc1587ffbde24461451c1d9fb9ea0a4f027ecf4906200055790899089904290620008ce565b60405180910390a350505b92915050565b610d01806200090983390190565b80356001600160a01b03811681146200058e57600080fd5b919050565b600060208284031215620005a657600080fd5b620005b18262000576565b9392505050565b600060208284031215620005cb57600080fd5b5035919050565b600081518084526020808501945080840160005b838110156200060d5781516001600160a01b031687529582019590820190600101620005e6565b509495945050505050565b602081526000620005b16020830184620005d2565b600080604083850312156200064157600080fd5b6200064c8362000576565b946020939093013593505050565b634e487b7160e01b600052604160045260246000fd5b604051601f8201601f1916810167ffffffffffffffff811182821017156200069c576200069c6200065a565b604052919050565b600067ffffffffffffffff821115620006c157620006c16200065a565b5060051b60200190565b600082601f830112620006dd57600080fd5b81356020620006f6620006f083620006a4565b62000670565b82815260059290921b840181019181810190868411156200071657600080fd5b8286015b848110156200073357803583529183019183016200071a565b509695505050505050565b600080604083850312156200075257600080fd5b823567ffffffffffffffff808211156200076b57600080fd5b818501915085601f8301126200078057600080fd5b8135602062000793620006f083620006a4565b82815260059290921b84018101918181019089841115620007b357600080fd5b948201945b83861015620007dc57620007cc8662000576565b82529482019490820190620007b8565b96505086013592505080821115620007f357600080fd5b506200080285828601620006cb565b9150509250929050565b634e487b7160e01b600052603260045260246000fd5b634e487b7160e01b600052601160045260246000fd5b8082018082111562000562576200056262000822565b60006001820162000863576200086362000822565b5060010190565b600081518084526020808501945080840160005b838110156200060d578151875295820195908201906001016200087e565b604081526000620008b16040830185620005d2565b8281036020840152620008c581856200086a565b95945050505050565b606081526000620008e36060830186620005d2565b8281036020840152620008f781866200086a565b91505082604083015294935050505056fe60a06040523480156200001157600080fd5b5060405162000d0138038062000d01833981016040819052620000349162000344565b6001600055815115806200004a57508051825114155b156200006957604051634ec4810560e11b815260040160405180910390fd5b6000805b8351811015620001465760006001600160a01b031684828151811062000097576200009762000422565b60200260200101516001600160a01b031603620000c75760405163226ccff560e11b815260040160405180910390fd5b828181518110620000dc57620000dc62000422565b60200260200101516000036200010557604051631f3b85d360e01b815260040160405180910390fd5b8281815181106200011a576200011a62000422565b6020026020010151826200012f91906200044e565b9150806200013d816200046a565b9150506200006d565b5080606414620001695760405163217475ff60e21b815260040160405180910390fd5b82516200017e906001906020860190620001a3565b508151620001949060029060208501906200020d565b50503360805250620004869050565b828054828255906000526020600020908101928215620001fb579160200282015b82811115620001fb57825182546001600160a01b0319166001600160a01b03909116178255602090920191600190910190620001c4565b50620002099291506200024b565b5090565b828054828255906000526020600020908101928215620001fb579160200282015b82811115620001fb5782518255916020019190600101906200022e565b5b808211156200020957600081556001016200024c565b634e487b7160e01b600052604160045260246000fd5b604051601f8201601f191681016001600160401b0381118282101715620002a357620002a362000262565b604052919050565b60006001600160401b03821115620002c757620002c762000262565b5060051b60200190565b600082601f830112620002e357600080fd5b81516020620002fc620002f683620002ab565b62000278565b82815260059290921b840181019181810190868411156200031c57600080fd5b8286015b8481101562000339578051835291830191830162000320565b509695505050505050565b600080604083850312156200035857600080fd5b82516001600160401b03808211156200037057600080fd5b818501915085601f8301126200038557600080fd5b8151602062000398620002f683620002ab565b82815260059290921b84018101918181019089841115620003b857600080fd5b948201945b83861015620003ef5785516001600160a01b0381168114620003df5760008081fd5b82529482019490820190620003bd565b918801519196509093505050808211156200040957600080fd5b506200041885828601620002d1565b9150509250929050565b634e487b7160e01b600052603260045260246000fd5b634e487b7160e01b600052601160045260246000fd5b8082018082111562000464576200046462000438565b92915050565b6000600182016200047f576200047f62000438565b5060010190565b60805161085f620004a26000396000610166015261085f6000f3fe60806040526004361061007f5760003560e01c8063d1bc76a11161004e578063d1bc76a1146101a0578063e4fc6b6d146101c0578063efca2eed146101d5578063f8858386146101eb57600080fd5b8063221b17db146100ce5780633dd1ae59146100f25780636d0cee75146101155780638da5cb5b1461015457600080fd5b366100c95760405134815233907f8e47b87b0ef542cdfa1659c551d88bad38aa7f452d2bbb349ab7530dfec8be8f9060200160405180910390a234156100c7576100c761020b565b005b600080fd5b3480156100da57600080fd5b506001545b6040519081526020015b60405180910390f35b3480156100fe57600080fd5b506101076104f1565b6040516100e99291906106e2565b34801561012157600080fd5b50610135610130366004610766565b6105ae565b604080516001600160a01b0390931683526020830191909152016100e9565b34801561016057600080fd5b506101887f000000000000000000000000000000000000000000000000000000000000000081565b6040516001600160a01b0390911681526020016100e9565b3480156101ac57600080fd5b506101886101bb366004610766565b610651565b3480156101cc57600080fd5b506100c761067b565b3480156101e157600080fd5b506100df60035481565b3480156101f757600080fd5b506100df610206366004610766565b610697565b47600081900361022e576040516318f5992f60e21b815260040160405180910390fd5b8060005b600180546102409190610795565b81101561038e57600060646002838154811061025e5761025e6107ae565b90600052602060002001548561027491906107c4565b61027e91906107db565b905061028a8184610795565b92506000600183815481106102a1576102a16107ae565b60009182526020822001546040516001600160a01b039091169184919081818185875af1925050503d80600081146102f5576040519150601f19603f3d011682016040523d82523d6000602084013e6102fa565b606091505b505090508061031c576040516312171d8360e31b815260040160405180910390fd5b6001838154811061032f5761032f6107ae565b600091825260209182902001546040518481526001600160a01b03909116917f3345dff52f7d4d803cbf38e3ea1336038dbc4bb99a73a70c4d64d32ed47ab635910160405180910390a250508080610386906107fd565b915050610232565b50801561049e5760018054600091906103a8908290610795565b815481106103b8576103b86107ae565b60009182526020822001546040516001600160a01b039091169184919081818185875af1925050503d806000811461040c576040519150601f19603f3d011682016040523d82523d6000602084013e610411565b606091505b5050905080610433576040516312171d8360e31b815260040160405180910390fd5b60018054610442908290610795565b81548110610452576104526107ae565b600091825260209182902001546040518481526001600160a01b03909116917f3345dff52f7d4d803cbf38e3ea1336038dbc4bb99a73a70c4d64d32ed47ab635910160405180910390a2505b81600360008282546104b09190610816565b9091555050604080518381524260208201527f40d8c854b6d5329fd5fccae04f5a931d7529963fbab81aced7337394e737cb4d910160405180910390a15050565b606080600160028180548060200260200160405190810160405280929190818152602001828054801561054d57602002820191906000526020600020905b81546001600160a01b0316815260019091019060200180831161052f575b505050505091508080548060200260200160405190810160405280929190818152602001828054801561059f57602002820191906000526020600020905b81548152602001906001019080831161058b575b50505050509050915091509091565b600154600090819083106105fe5760405162461bcd60e51b8152602060048201526013602482015272496e646578206f7574206f6620626f756e647360681b604482015260640160405180910390fd5b60018381548110610611576106116107ae565b600091825260209091200154600280546001600160a01b03909216918590811061063d5761063d6107ae565b906000526020600020015491509150915091565b6001818154811061066157600080fd5b6000918252602090912001546001600160a01b0316905081565b6106836106b8565b61068b61020b565b6106956001600055565b565b600281815481106106a757600080fd5b600091825260209091200154905081565b6002600054036106db57604051633ee5aeb560e01b815260040160405180910390fd5b6002600055565b604080825283519082018190526000906020906060840190828701845b828110156107245781516001600160a01b0316845292840192908401906001016106ff565b5050508381038285015284518082528583019183019060005b818110156107595783518352928401929184019160010161073d565b5090979650505050505050565b60006020828403121561077857600080fd5b5035919050565b634e487b7160e01b600052601160045260246000fd5b818103818111156107a8576107a861077f565b92915050565b634e487b7160e01b600052603260045260246000fd5b80820281158282048414176107a8576107a861077f565b6000826107f857634e487b7160e01b600052601260045260246000fd5b500490565b60006001820161080f5761080f61077f565b5060010190565b808201808211156107a8576107a861077f56fea2646970667358221220afa9e58d11bf24c0e061addc1eb746097922eeec39d0293523e323023c2e5d9164736f6c63430008140033a2646970667358221220bc9f02e0022b1fcaea012fd0f900a7545d8a39b451ce73a6385cd428eb361eb064736f6c63430008140033","opcodes":"PUSH1 0x80 PUSH1 0x40 MSTORE CALLVALUE DUP1 ISZERO PUSH2 0x10 JUMPI PUSH1 0x0 DUP1 REVERT JUMPDEST POP PUSH2 0x163F DUP1 PUSH2 0x20 PUSH1 0x0 CODECOPY PUSH1 0x0 RETURN INVALID PUSH1 0x80 PUSH1 0x40 MSTORE CALLVALUE DUP1 ISZERO PUSH3 0x11 JUMPI PUSH1 0x0 DUP1 REVERT JUMPDEST POP PUSH1 0x4 CALLDATASIZE LT PUSH3 0x9F JUMPI PUSH1 0x0 CALLDATALOAD PUSH1 0xE0 SHR DUP1 PUSH4 0x6F8C842B GT PUSH3 0x6E JUMPI DUP1 PUSH4 0x6F8C842B EQ PUSH3 0x150 JUMPI DUP1 PUSH4 0x8B8F5031 EQ PUSH3 0x159 JUMPI DUP1 PUSH4 0xBEFA6645 EQ PUSH3 0x190 JUMPI DUP1 PUSH4 0xC22CDA28 EQ PUSH3 0x19A JUMPI DUP1 PUSH4 0xD8D9D48F EQ PUSH3 0x1B1 JUMPI PUSH1 0x0 DUP1 REVERT JUMPDEST DUP1 PUSH4 0x395CA5FA EQ PUSH3 0xA4 JUMPI DUP1 PUSH4 0x3C785D1B EQ PUSH3 0xE3 JUMPI DUP1 PUSH4 0x50725FB5 EQ PUSH3 0x113 JUMPI DUP1 PUSH4 0x5B006B6B EQ PUSH3 0x139 JUMPI JUMPDEST PUSH1 0x0 DUP1 REVERT JUMPDEST PUSH3 0xD0 PUSH3 0xB5 CALLDATASIZE PUSH1 0x4 PUSH3 0x593 JUMP JUMPDEST PUSH1 0x1 PUSH1 0x1 PUSH1 0xA0 SHL SUB AND PUSH1 0x0 SWAP1 DUP2 MSTORE PUSH1 0x1 PUSH1 0x20 MSTORE PUSH1 0x40 SWAP1 KECCAK256 SLOAD SWAP1 JUMP JUMPDEST PUSH1 0x40 MLOAD SWAP1 DUP2 MSTORE PUSH1 0x20 ADD JUMPDEST PUSH1 0x40 MLOAD DUP1 SWAP2 SUB SWAP1 RETURN JUMPDEST PUSH3 0xFA PUSH3 0xF4 CALLDATASIZE PUSH1 0x4 PUSH3 0x5B8 JUMP JUMPDEST PUSH3 0x1E0 JUMP JUMPDEST PUSH1 0x40 MLOAD PUSH1 0x1 PUSH1 0x1 PUSH1 0xA0 SHL SUB SWAP1 SWAP2 AND DUP2 MSTORE PUSH1 0x20 ADD PUSH3 0xDA JUMP JUMPDEST PUSH3 0x12A PUSH3 0x124 CALLDATASIZE PUSH1 0x4 PUSH3 0x593 JUMP JUMPDEST PUSH3 0x20B JUMP JUMPDEST PUSH1 0x40 MLOAD PUSH3 0xDA SWAP2 SWAP1 PUSH3 0x618 JUMP JUMPDEST PUSH3 0xFA PUSH3 0x14A CALLDATASIZE PUSH1 0x4 PUSH3 0x62D JUMP JUMPDEST PUSH3 0x283 JUMP JUMPDEST PUSH1 0x0 SLOAD PUSH3 0xD0 JUMP JUMPDEST PUSH3 0x17F PUSH3 0x16A CALLDATASIZE PUSH1 0x4 PUSH3 0x593 JUMP JUMPDEST PUSH1 0x2 PUSH1 0x20 MSTORE PUSH1 0x0 SWAP1 DUP2 MSTORE PUSH1 0x40 SWAP1 KECCAK256 SLOAD PUSH1 0xFF AND DUP2 JUMP JUMPDEST PUSH1 0x40 MLOAD SWAP1 ISZERO ISZERO DUP2 MSTORE PUSH1 0x20 ADD PUSH3 0xDA JUMP JUMPDEST PUSH3 0x12A PUSH3 0x2BC JUMP JUMPDEST PUSH3 0xFA PUSH3 0x1AB CALLDATASIZE PUSH1 0x4 PUSH3 0x73E JUMP JUMPDEST PUSH3 0x320 JUMP JUMPDEST PUSH3 0x17F PUSH3 0x1C2 CALLDATASIZE PUSH1 0x4 PUSH3 0x593 JUMP JUMPDEST PUSH1 0x1 PUSH1 0x1 PUSH1 0xA0 SHL SUB AND PUSH1 0x0 SWAP1 DUP2 MSTORE PUSH1 0x2 PUSH1 0x20 MSTORE PUSH1 0x40 SWAP1 KECCAK256 SLOAD PUSH1 0xFF AND SWAP1 JUMP JUMPDEST PUSH1 0x0 DUP2 DUP2 SLOAD DUP2 LT PUSH3 0x1F1 JUMPI PUSH1 0x0 DUP1 REVERT JUMPDEST PUSH1 0x0 SWAP2 DUP3 MSTORE PUSH1 0x20 SWAP1 SWAP2 KECCAK256 ADD SLOAD PUSH1 0x1 PUSH1 0x1 PUSH1 0xA0 SHL SUB AND SWAP1 POP DUP2 JUMP JUMPDEST PUSH1 0x1 PUSH1 0x1 PUSH1 0xA0 SHL SUB DUP2 AND PUSH1 0x0 SWAP1 DUP2 MSTORE PUSH1 0x1 PUSH1 0x20 SWAP1 DUP2 MSTORE PUSH1 0x40 SWAP2 DUP3 SWAP1 KECCAK256 DUP1 SLOAD DUP4 MLOAD DUP2 DUP5 MUL DUP2 ADD DUP5 ADD SWAP1 SWAP5 MSTORE DUP1 DUP5 MSTORE PUSH1 0x60 SWAP4 SWAP3 DUP4 ADD DUP3 DUP3 DUP1 ISZERO PUSH3 0x277 JUMPI PUSH1 0x20 MUL DUP3 ADD SWAP2 SWAP1 PUSH1 0x0 MSTORE PUSH1 0x20 PUSH1 0x0 KECCAK256 SWAP1 JUMPDEST DUP2 SLOAD PUSH1 0x1 PUSH1 0x1 PUSH1 0xA0 SHL SUB AND DUP2 MSTORE PUSH1 0x1 SWAP1 SWAP2 ADD SWAP1 PUSH1 0x20 ADD DUP1 DUP4 GT PUSH3 0x258 JUMPI JUMPDEST POP POP POP POP POP SWAP1 POP SWAP2 SWAP1 POP JUMP JUMPDEST PUSH1 0x1 PUSH1 0x20 MSTORE DUP2 PUSH1 0x0 MSTORE PUSH1 0x40 PUSH1 0x0 KECCAK256 DUP2 DUP2 SLOAD DUP2 LT PUSH3 0x2A0 JUMPI PUSH1 0x0 DUP1 REVERT JUMPDEST PUSH1 0x0 SWAP2 DUP3 MSTORE PUSH1 0x20 SWAP1 SWAP2 KECCAK256 ADD SLOAD PUSH1 0x1 PUSH1 0x1 PUSH1 0xA0 SHL SUB AND SWAP2 POP DUP3 SWAP1 POP JUMP JUMPDEST PUSH1 0x60 PUSH1 0x0 DUP1 SLOAD DUP1 PUSH1 0x20 MUL PUSH1 0x20 ADD PUSH1 0x40 MLOAD SWAP1 DUP2 ADD PUSH1 0x40 MSTORE DUP1 SWAP3 SWAP2 SWAP1 DUP2 DUP2 MSTORE PUSH1 0x20 ADD DUP3 DUP1 SLOAD DUP1 ISZERO PUSH3 0x316 JUMPI PUSH1 0x20 MUL DUP3 ADD SWAP2 SWAP1 PUSH1 0x0 MSTORE PUSH1 0x20 PUSH1 0x0 KECCAK256 SWAP1 JUMPDEST DUP2 SLOAD PUSH1 0x1 PUSH1 0x1 PUSH1 0xA0 SHL SUB AND DUP2 MSTORE PUSH1 0x1 SWAP1 SWAP2 ADD SWAP1 PUSH1 0x20 ADD DUP1 DUP4 GT PUSH3 0x2F7 JUMPI JUMPDEST POP POP POP POP POP SWAP1 POP SWAP1 JUMP JUMPDEST PUSH1 0x0 DUP3 MLOAD PUSH1 0x0 EQ DUP1 PUSH3 0x335 JUMPI POP DUP2 MLOAD DUP4 MLOAD EQ ISZERO JUMPDEST ISZERO PUSH3 0x354 JUMPI PUSH1 0x40 MLOAD PUSH4 0x4EC48105 PUSH1 0xE1 SHL DUP2 MSTORE PUSH1 0x4 ADD PUSH1 0x40 MLOAD DUP1 SWAP2 SUB SWAP1 REVERT JUMPDEST PUSH1 0x0 DUP1 JUMPDEST DUP5 MLOAD DUP2 LT ISZERO PUSH3 0x431 JUMPI PUSH1 0x0 PUSH1 0x1 PUSH1 0x1 PUSH1 0xA0 SHL SUB AND DUP6 DUP3 DUP2 MLOAD DUP2 LT PUSH3 0x382 JUMPI PUSH3 0x382 PUSH3 0x80C JUMP JUMPDEST PUSH1 0x20 MUL PUSH1 0x20 ADD ADD MLOAD PUSH1 0x1 PUSH1 0x1 PUSH1 0xA0 SHL SUB AND SUB PUSH3 0x3B2 JUMPI PUSH1 0x40 MLOAD PUSH4 0x226CCFF5 PUSH1 0xE1 SHL DUP2 MSTORE PUSH1 0x4 ADD PUSH1 0x40 MLOAD DUP1 SWAP2 SUB SWAP1 REVERT JUMPDEST DUP4 DUP2 DUP2 MLOAD DUP2 LT PUSH3 0x3C7 JUMPI PUSH3 0x3C7 PUSH3 0x80C JUMP JUMPDEST PUSH1 0x20 MUL PUSH1 0x20 ADD ADD MLOAD PUSH1 0x0 SUB PUSH3 0x3F0 JUMPI PUSH1 0x40 MLOAD PUSH4 0x1F3B85D3 PUSH1 0xE0 SHL DUP2 MSTORE PUSH1 0x4 ADD PUSH1 0x40 MLOAD DUP1 SWAP2 SUB SWAP1 REVERT JUMPDEST DUP4 DUP2 DUP2 MLOAD DUP2 LT PUSH3 0x405 JUMPI PUSH3 0x405 PUSH3 0x80C JUMP JUMPDEST PUSH1 0x20 MUL PUSH1 0x20 ADD ADD MLOAD DUP3 PUSH3 0x41A SWAP2 SWAP1 PUSH3 0x838 JUMP JUMPDEST SWAP2 POP DUP1 PUSH3 0x428 DUP2 PUSH3 0x84E JUMP JUMPDEST SWAP2 POP POP PUSH3 0x358 JUMP JUMPDEST POP DUP1 PUSH1 0x64 EQ PUSH3 0x454 JUMPI PUSH1 0x40 MLOAD PUSH4 0x217475FF PUSH1 0xE2 SHL DUP2 MSTORE PUSH1 0x4 ADD PUSH1 0x40 MLOAD DUP1 SWAP2 SUB SWAP1 REVERT JUMPDEST PUSH1 0x0 DUP5 DUP5 PUSH1 0x40 MLOAD PUSH3 0x466 SWAP1 PUSH3 0x568 JUMP JUMPDEST PUSH3 0x473 SWAP3 SWAP2 SWAP1 PUSH3 0x89C JUMP JUMPDEST PUSH1 0x40 MLOAD DUP1 SWAP2 SUB SWAP1 PUSH1 0x0 CREATE DUP1 ISZERO DUP1 ISZERO PUSH3 0x490 JUMPI RETURNDATASIZE PUSH1 0x0 DUP1 RETURNDATACOPY RETURNDATASIZE PUSH1 0x0 REVERT JUMPDEST POP PUSH1 0x0 DUP1 SLOAD PUSH1 0x1 DUP2 DUP2 ADD DUP4 SSTORE PUSH32 0x290DECD9548B62A8D60345A988386FC84BA6BC95484008F6362F93160EF3E563 SWAP1 SWAP2 ADD DUP1 SLOAD PUSH1 0x1 PUSH1 0x1 PUSH1 0xA0 SHL SUB DUP6 AND PUSH1 0x1 PUSH1 0x1 PUSH1 0xA0 SHL SUB NOT SWAP2 DUP3 AND DUP2 OR SWAP1 SWAP3 SSTORE CALLER DUP1 DUP6 MSTORE PUSH1 0x20 DUP5 DUP2 MSTORE PUSH1 0x40 DUP1 DUP8 KECCAK256 DUP1 SLOAD DUP1 DUP9 ADD DUP3 SSTORE SWAP1 DUP9 MSTORE DUP3 DUP9 KECCAK256 ADD DUP1 SLOAD SWAP1 SWAP5 AND DUP6 OR SWAP1 SWAP4 SSTORE DUP4 DUP7 MSTORE PUSH1 0x2 SWAP1 MSTORE SWAP4 DUP2 SWAP1 KECCAK256 DUP1 SLOAD PUSH1 0xFF NOT AND SWAP1 SWAP4 OR SWAP1 SWAP3 SSTORE SWAP1 MLOAD SWAP3 SWAP6 POP DUP6 SWAP4 POP SWAP1 SWAP2 PUSH32 0x9DBFD0465FF365A4BBA7BF3F7DC1587FFBDE24461451C1D9FB9EA0A4F027ECF4 SWAP1 PUSH3 0x557 SWAP1 DUP10 SWAP1 DUP10 SWAP1 TIMESTAMP SWAP1 PUSH3 0x8CE JUMP JUMPDEST PUSH1 0x40 MLOAD DUP1 SWAP2 SUB SWAP1 LOG3 POP POP JUMPDEST SWAP3 SWAP2 POP POP JUMP JUMPDEST PUSH2 0xD01 DUP1 PUSH3 0x909 DUP4 CODECOPY ADD SWAP1 JUMP JUMPDEST DUP1 CALLDATALOAD PUSH1 0x1 PUSH1 0x1 PUSH1 0xA0 SHL SUB DUP2 AND DUP2 EQ PUSH3 0x58E JUMPI PUSH1 0x0 DUP1 REVERT JUMPDEST SWAP2 SWAP1 POP JUMP JUMPDEST PUSH1 0x0 PUSH1 0x20 DUP3 DUP5 SUB SLT ISZERO PUSH3 0x5A6 JUMPI PUSH1 0x0 DUP1 REVERT JUMPDEST PUSH3 0x5B1 DUP3 PUSH3 0x576 JUMP JUMPDEST SWAP4 SWAP3 POP POP POP JUMP JUMPDEST PUSH1 0x0 PUSH1 0x20 DUP3 DUP5 SUB SLT ISZERO PUSH3 0x5CB JUMPI PUSH1 0x0 DUP1 REVERT JUMPDEST POP CALLDATALOAD SWAP2 SWAP1 POP JUMP JUMPDEST PUSH1 0x0 DUP2 MLOAD DUP1 DUP5 MSTORE PUSH1 0x20 DUP1 DUP6 ADD SWAP5 POP DUP1 DUP5 ADD PUSH1 0x0 JUMPDEST DUP4 DUP2 LT ISZERO PUSH3 0x60D JUMPI DUP2 MLOAD PUSH1 0x1 PUSH1 0x1 PUSH1 0xA0 SHL SUB AND DUP8 MSTORE SWAP6 DUP3 ADD SWAP6 SWAP1 DUP3 ADD SWAP1 PUSH1 0x1 ADD PUSH3 0x5E6 JUMP JUMPDEST POP SWAP5 SWAP6 SWAP5 POP POP POP POP POP JUMP JUMPDEST PUSH1 0x20 DUP2 MSTORE PUSH1 0x0 PUSH3 0x5B1 PUSH1 0x20 DUP4 ADD DUP5 PUSH3 0x5D2 JUMP JUMPDEST PUSH1 0x0 DUP1 PUSH1 0x40 DUP4 DUP6 SUB SLT ISZERO PUSH3 0x641 JUMPI PUSH1 0x0 DUP1 REVERT JUMPDEST PUSH3 0x64C DUP4 PUSH3 0x576 JUMP JUMPDEST SWAP5 PUSH1 0x20 SWAP4 SWAP1 SWAP4 ADD CALLDATALOAD SWAP4 POP POP POP JUMP JUMPDEST PUSH4 0x4E487B71 PUSH1 0xE0 SHL PUSH1 0x0 MSTORE PUSH1 0x41 PUSH1 0x4 MSTORE PUSH1 0x24 PUSH1 0x0 REVERT JUMPDEST PUSH1 0x40 MLOAD PUSH1 0x1F DUP3 ADD PUSH1 0x1F NOT AND DUP2 ADD PUSH8 0xFFFFFFFFFFFFFFFF DUP2 GT DUP3 DUP3 LT OR ISZERO PUSH3 0x69C JUMPI PUSH3 0x69C PUSH3 0x65A JUMP JUMPDEST PUSH1 0x40 MSTORE SWAP2 SWAP1 POP JUMP JUMPDEST PUSH1 0x0 PUSH8 0xFFFFFFFFFFFFFFFF DUP3 GT ISZERO PUSH3 0x6C1 JUMPI PUSH3 0x6C1 PUSH3 0x65A JUMP JUMPDEST POP PUSH1 0x5 SHL PUSH1 0x20 ADD SWAP1 JUMP JUMPDEST PUSH1 0x0 DUP3 PUSH1 0x1F DUP4 ADD SLT PUSH3 0x6DD JUMPI PUSH1 0x0 DUP1 REVERT JUMPDEST DUP2 CALLDATALOAD PUSH1 0x20 PUSH3 0x6F6 PUSH3 0x6F0 DUP4 PUSH3 0x6A4 JUMP JUMPDEST PUSH3 0x670 JUMP JUMPDEST DUP3 DUP2 MSTORE PUSH1 0x5 SWAP3 SWAP1 SWAP3 SHL DUP5 ADD DUP2 ADD SWAP2 DUP2 DUP2 ADD SWAP1 DUP7 DUP5 GT ISZERO PUSH3 0x716 JUMPI PUSH1 0x0 DUP1 REVERT JUMPDEST DUP3 DUP7 ADD JUMPDEST DUP5 DUP2 LT ISZERO PUSH3 0x733 JUMPI DUP1 CALLDATALOAD DUP4 MSTORE SWAP2 DUP4 ADD SWAP2 DUP4 ADD PUSH3 0x71A JUMP JUMPDEST POP SWAP7 SWAP6 POP POP POP POP POP POP JUMP JUMPDEST PUSH1 0x0 DUP1 PUSH1 0x40 DUP4 DUP6 SUB SLT ISZERO PUSH3 0x752 JUMPI PUSH1 0x0 DUP1 REVERT JUMPDEST DUP3 CALLDATALOAD PUSH8 0xFFFFFFFFFFFFFFFF DUP1 DUP3 GT ISZERO PUSH3 0x76B JUMPI PUSH1 0x0 DUP1 REVERT JUMPDEST DUP2 DUP6 ADD SWAP2 POP DUP6 PUSH1 0x1F DUP4 ADD SLT PUSH3 0x780 JUMPI PUSH1 0x0 DUP1 REVERT JUMPDEST DUP2 CALLDATALOAD PUSH1 0x20 PUSH3 0x793 PUSH3 0x6F0 DUP4 PUSH3 0x6A4 JUMP JUMPDEST DUP3 DUP2 MSTORE PUSH1 0x5 SWAP3 SWAP1 SWAP3 SHL DUP5 ADD DUP2 ADD SWAP2 DUP2 DUP2 ADD SWAP1 DUP10 DUP5 GT ISZERO PUSH3 0x7B3 JUMPI PUSH1 0x0 DUP1 REVERT JUMPDEST SWAP5 DUP3 ADD SWAP5 JUMPDEST DUP4 DUP7 LT ISZERO PUSH3 0x7DC JUMPI PUSH3 0x7CC DUP7 PUSH3 0x576 JUMP JUMPDEST DUP3 MSTORE SWAP5 DUP3 ADD SWAP5 SWAP1 DUP3 ADD SWAP1 PUSH3 0x7B8 JUMP JUMPDEST SWAP7 POP POP DUP7 ADD CALLDATALOAD SWAP3 POP POP DUP1 DUP3 GT ISZERO PUSH3 0x7F3 JUMPI PUSH1 0x0 DUP1 REVERT JUMPDEST POP PUSH3 0x802 DUP6 DUP3 DUP7 ADD PUSH3 0x6CB JUMP JUMPDEST SWAP2 POP POP SWAP3 POP SWAP3 SWAP1 POP JUMP JUMPDEST PUSH4 0x4E487B71 PUSH1 0xE0 SHL PUSH1 0x0 MSTORE PUSH1 0x32 PUSH1 0x4 MSTORE PUSH1 0x24 PUSH1 0x0 REVERT JUMPDEST PUSH4 0x4E487B71 PUSH1 0xE0 SHL PUSH1 0x0 MSTORE PUSH1 0x11 PUSH1 0x4 MSTORE PUSH1 0x24 PUSH1 0x0 REVERT JUMPDEST DUP1 DUP3 ADD DUP1 DUP3 GT ISZERO PUSH3 0x562 JUMPI PUSH3 0x562 PUSH3 0x822 JUMP JUMPDEST PUSH1 0x0 PUSH1 0x1 DUP3 ADD PUSH3 0x863 JUMPI PUSH3 0x863 PUSH3 0x822 JUMP JUMPDEST POP PUSH1 0x1 ADD SWAP1 JUMP JUMPDEST PUSH1 0x0 DUP2 MLOAD DUP1 DUP5 MSTORE PUSH1 0x20 DUP1 DUP6 ADD SWAP5 POP DUP1 DUP5 ADD PUSH1 0x0 JUMPDEST DUP4 DUP2 LT ISZERO PUSH3 0x60D JUMPI DUP2 MLOAD DUP8 MSTORE SWAP6 DUP3 ADD SWAP6 SWAP1 DUP3 ADD SWAP1 PUSH1 0x1 ADD PUSH3 0x87E JUMP JUMPDEST PUSH1 0x40 DUP2 MSTORE PUSH1 0x0 PUSH3 0x8B1 PUSH1 0x40 DUP4 ADD DUP6 PUSH3 0x5D2 JUMP JUMPDEST DUP3 DUP2 SUB PUSH1 0x20 DUP5 ADD MSTORE PUSH3 0x8C5 DUP2 DUP6 PUSH3 0x86A JUMP JUMPDEST SWAP6 SWAP5 POP POP POP POP POP JUMP JUMPDEST PUSH1 0x60 DUP2 MSTORE PUSH1 0x0 PUSH3 0x8E3 PUSH1 0x60 DUP4 ADD DUP7 PUSH3 0x5D2 JUMP JUMPDEST DUP3 DUP2 SUB PUSH1 0x20 DUP5 ADD MSTORE PUSH3 0x8F7 DUP2 DUP7 PUSH3 0x86A JUMP JUMPDEST SWAP2 POP POP DUP3 PUSH1 0x40 DUP4 ADD MSTORE SWAP5 SWAP4 POP POP POP POP JUMP INVALID PUSH1 0xA0 PUSH1 0x40 MSTORE CALLVALUE DUP1 ISZERO PUSH3 0x11 JUMPI PUSH1 0x0 DUP1 REVERT JUMPDEST POP PUSH1 0x40 MLOAD PUSH3 0xD01 CODESIZE SUB DUP1 PUSH3 0xD01 DUP4 CODECOPY DUP2 ADD PUSH1 0x40 DUP2 SWAP1 MSTORE PUSH3 0x34 SWAP2 PUSH3 0x344 JUMP JUMPDEST PUSH1 0x1 PUSH1 0x0 SSTORE DUP2 MLOAD ISZERO DUP1 PUSH3 0x4A JUMPI POP DUP1 MLOAD DUP3 MLOAD EQ ISZERO JUMPDEST ISZERO PUSH3 0x69 JUMPI PUSH1 0x40 MLOAD PUSH4 0x4EC48105 PUSH1 0xE1 SHL DUP2 MSTORE PUSH1 0x4 ADD PUSH1 0x40 MLOAD DUP1 SWAP2 SUB SWAP1 REVERT JUMPDEST PUSH1 0x0 DUP1 JUMPDEST DUP4 MLOAD DUP2 LT ISZERO PUSH3 0x146 JUMPI PUSH1 0x0 PUSH1 0x1 PUSH1 0x1 PUSH1 0xA0 SHL SUB AND DUP5 DUP3 DUP2 MLOAD DUP2 LT PUSH3 0x97 JUMPI PUSH3 0x97 PUSH3 0x422 JUMP JUMPDEST PUSH1 0x20 MUL PUSH1 0x20 ADD ADD MLOAD PUSH1 0x1 PUSH1 0x1 PUSH1 0xA0 SHL SUB AND SUB PUSH3 0xC7 JUMPI PUSH1 0x40 MLOAD PUSH4 0x226CCFF5 PUSH1 0xE1 SHL DUP2 MSTORE PUSH1 0x4 ADD PUSH1 0x40 MLOAD DUP1 SWAP2 SUB SWAP1 REVERT JUMPDEST DUP3 DUP2 DUP2 MLOAD DUP2 LT PUSH3 0xDC JUMPI PUSH3 0xDC PUSH3 0x422 JUMP JUMPDEST PUSH1 0x20 MUL PUSH1 0x20 ADD ADD MLOAD PUSH1 0x0 SUB PUSH3 0x105 JUMPI PUSH1 0x40 MLOAD PUSH4 0x1F3B85D3 PUSH1 0xE0 SHL DUP2 MSTORE PUSH1 0x4 ADD PUSH1 0x40 MLOAD DUP1 SWAP2 SUB SWAP1 REVERT JUMPDEST DUP3 DUP2 DUP2 MLOAD DUP2 LT PUSH3 0x11A JUMPI PUSH3 0x11A PUSH3 0x422 JUMP JUMPDEST PUSH1 0x20 MUL PUSH1 0x20 ADD ADD MLOAD DUP3 PUSH3 0x12F SWAP2 SWAP1 PUSH3 0x44E JUMP JUMPDEST SWAP2 POP DUP1 PUSH3 0x13D DUP2 PUSH3 0x46A JUMP JUMPDEST SWAP2 POP POP PUSH3 0x6D JUMP JUMPDEST POP DUP1 PUSH1 0x64 EQ PUSH3 0x169 JUMPI PUSH1 0x40 MLOAD PUSH4 0x217475FF PUSH1 0xE2 SHL DUP2 MSTORE PUSH1 0x4 ADD PUSH1 0x40 MLOAD DUP1 SWAP2 SUB SWAP1 REVERT JUMPDEST DUP3 MLOAD PUSH3 0x17E SWAP1 PUSH1 0x1 SWAP1 PUSH1 0x20 DUP7 ADD SWAP1 PUSH3 0x1A3 JUMP JUMPDEST POP DUP2 MLOAD PUSH3 0x194 SWAP1 PUSH1 0x2 SWAP1 PUSH1 0x20 DUP6 ADD SWAP1 PUSH3 0x20D JUMP JUMPDEST POP POP CALLER PUSH1 0x80 MSTORE POP PUSH3 0x486 SWAP1 POP JUMP JUMPDEST DUP3 DUP1 SLOAD DUP3 DUP3 SSTORE SWAP1 PUSH1 0x0 MSTORE PUSH1 0x20 PUSH1 0x0 KECCAK256 SWAP1 DUP2 ADD SWAP3 DUP3 ISZERO PUSH3 0x1FB JUMPI SWAP2 PUSH1 0x20 MUL DUP3 ADD JUMPDEST DUP3 DUP2 GT ISZERO PUSH3 0x1FB JUMPI DUP3 MLOAD DUP3 SLOAD PUSH1 0x1 PUSH1 0x1 PUSH1 0xA0 SHL SUB NOT AND PUSH1 0x1 PUSH1 0x1 PUSH1 0xA0 SHL SUB SWAP1 SWAP2 AND OR DUP3 SSTORE PUSH1 0x20 SWAP1 SWAP3 ADD SWAP2 PUSH1 0x1 SWAP1 SWAP2 ADD SWAP1 PUSH3 0x1C4 JUMP JUMPDEST POP PUSH3 0x209 SWAP3 SWAP2 POP PUSH3 0x24B JUMP JUMPDEST POP SWAP1 JUMP JUMPDEST DUP3 DUP1 SLOAD DUP3 DUP3 SSTORE SWAP1 PUSH1 0x0 MSTORE PUSH1 0x20 PUSH1 0x0 KECCAK256 SWAP1 DUP2 ADD SWAP3 DUP3 ISZERO PUSH3 0x1FB JUMPI SWAP2 PUSH1 0x20 MUL DUP3 ADD JUMPDEST DUP3 DUP2 GT ISZERO PUSH3 0x1FB JUMPI DUP3 MLOAD DUP3 SSTORE SWAP2 PUSH1 0x20 ADD SWAP2 SWAP1 PUSH1 0x1 ADD SWAP1 PUSH3 0x22E JUMP JUMPDEST JUMPDEST DUP1 DUP3 GT ISZERO PUSH3 0x209 JUMPI PUSH1 0x0 DUP2 SSTORE PUSH1 0x1 ADD PUSH3 0x24C JUMP JUMPDEST PUSH4 0x4E487B71 PUSH1 0xE0 SHL PUSH1 0x0 MSTORE PUSH1 0x41 PUSH1 0x4 MSTORE PUSH1 0x24 PUSH1 0x0 REVERT JUMPDEST PUSH1 0x40 MLOAD PUSH1 0x1F DUP3 ADD PUSH1 0x1F NOT AND DUP2 ADD PUSH1 0x1 PUSH1 0x1 PUSH1 0x40 SHL SUB DUP2 GT DUP3 DUP3 LT OR ISZERO PUSH3 0x2A3 JUMPI PUSH3 0x2A3 PUSH3 0x262 JUMP JUMPDEST PUSH1 0x40 MSTORE SWAP2 SWAP1 POP JUMP JUMPDEST PUSH1 0x0 PUSH1 0x1 PUSH1 0x1 PUSH1 0x40 SHL SUB DUP3 GT ISZERO PUSH3 0x2C7 JUMPI PUSH3 0x2C7 PUSH3 0x262 JUMP JUMPDEST POP PUSH1 0x5 SHL PUSH1 0x20 ADD SWAP1 JUMP JUMPDEST PUSH1 0x0 DUP3 PUSH1 0x1F DUP4 ADD SLT PUSH3 0x2E3 JUMPI PUSH1 0x0 DUP1 REVERT JUMPDEST DUP2 MLOAD PUSH1 0x20 PUSH3 0x2FC PUSH3 0x2F6 DUP4 PUSH3 0x2AB JUMP JUMPDEST PUSH3 0x278 JUMP JUMPDEST DUP3 DUP2 MSTORE PUSH1 0x5 SWAP3 SWAP1 SWAP3 SHL DUP5 ADD DUP2 ADD SWAP2 DUP2 DUP2 ADD SWAP1 DUP7 DUP5 GT ISZERO PUSH3 0x31C JUMPI PUSH1 0x0 DUP1 REVERT JUMPDEST DUP3 DUP7 ADD JUMPDEST DUP5 DUP2 LT ISZERO PUSH3 0x339 JUMPI DUP1 MLOAD DUP4 MSTORE SWAP2 DUP4 ADD SWAP2 DUP4 ADD PUSH3 0x320 JUMP JUMPDEST POP SWAP7 SWAP6 POP POP POP POP POP POP JUMP JUMPDEST PUSH1 0x0 DUP1 PUSH1 0x40 DUP4 DUP6 SUB SLT ISZERO PUSH3 0x358 JUMPI PUSH1 0x0 DUP1 REVERT JUMPDEST DUP3 MLOAD PUSH1 0x1 PUSH1 0x1 PUSH1 0x40 SHL SUB DUP1 DUP3 GT ISZERO PUSH3 0x370 JUMPI PUSH1 0x0 DUP1 REVERT JUMPDEST DUP2 DUP6 ADD SWAP2 POP DUP6 PUSH1 0x1F DUP4 ADD SLT PUSH3 0x385 JUMPI PUSH1 0x0 DUP1 REVERT JUMPDEST DUP2 MLOAD PUSH1 0x20 PUSH3 0x398 PUSH3 0x2F6 DUP4 PUSH3 0x2AB JUMP JUMPDEST DUP3 DUP2 MSTORE PUSH1 0x5 SWAP3 SWAP1 SWAP3 SHL DUP5 ADD DUP2 ADD SWAP2 DUP2 DUP2 ADD SWAP1 DUP10 DUP5 GT ISZERO PUSH3 0x3B8 JUMPI PUSH1 0x0 DUP1 REVERT JUMPDEST SWAP5 DUP3 ADD SWAP5 JUMPDEST DUP4 DUP7 LT ISZERO PUSH3 0x3EF JUMPI DUP6 MLOAD PUSH1 0x1 PUSH1 0x1 PUSH1 0xA0 SHL SUB DUP2 AND DUP2 EQ PUSH3 0x3DF JUMPI PUSH1 0x0 DUP1 DUP2 REVERT JUMPDEST DUP3 MSTORE SWAP5 DUP3 ADD SWAP5 SWAP1 DUP3 ADD SWAP1 PUSH3 0x3BD JUMP JUMPDEST SWAP2 DUP9 ADD MLOAD SWAP2 SWAP7 POP SWAP1 SWAP4 POP POP POP DUP1 DUP3 GT ISZERO PUSH3 0x409 JUMPI PUSH1 0x0 DUP1 REVERT JUMPDEST POP PUSH3 0x418 DUP6 DUP3 DUP7 ADD PUSH3 0x2D1 JUMP JUMPDEST SWAP2 POP POP SWAP3 POP SWAP3 SWAP1 POP JUMP JUMPDEST PUSH4 0x4E487B71 PUSH1 0xE0 SHL PUSH1 0x0 MSTORE PUSH1 0x32 PUSH1 0x4 MSTORE PUSH1 0x24 PUSH1 0x0 REVERT JUMPDEST PUSH4 0x4E487B71 PUSH1 0xE0 SHL PUSH1 0x0 MSTORE PUSH1 0x11 PUSH1 0x4 MSTORE PUSH1 0x24 PUSH1 0x0 REVERT JUMPDEST DUP1 DUP3 ADD DUP1 DUP3 GT ISZERO PUSH3 0x464 JUMPI PUSH3 0x464 PUSH3 0x438 JUMP JUMPDEST SWAP3 SWAP2 POP POP JUMP JUMPDEST PUSH1 0x0 PUSH1 0x1 DUP3 ADD PUSH3 0x47F JUMPI PUSH3 0x47F PUSH3 0x438 JUMP JUMPDEST POP PUSH1 0x1 ADD SWAP1 JUMP JUMPDEST PUSH1 0x80 MLOAD PUSH2 0x85F PUSH3 0x4A2 PUSH1 0x0 CODECOPY PUSH1 0x0 PUSH2 0x166 ADD MSTORE PUSH2 0x85F PUSH1 0x0 RETURN INVALID PUSH1 0x80 PUSH1 0x40 MSTORE PUSH1 0x4 CALLDATASIZE LT PUSH2 0x7F JUMPI PUSH1 0x0 CALLDATALOAD PUSH1 0xE0 SHR DUP1 PUSH4 0xD1BC76A1 GT PUSH2 0x4E JUMPI DUP1 PUSH4 0xD1BC76A1 EQ PUSH2 0x1A0 JUMPI DUP1 PUSH4 0xE4FC6B6D EQ PUSH2 0x1C0 JUMPI DUP1 PUSH4 0xEFCA2EED EQ PUSH2 0x1D5 JUMPI DUP1 PUSH4 0xF8858386 EQ PUSH2 0x1EB JUMPI PUSH1 0x0 DUP1 REVERT JUMPDEST DUP1 PUSH4 0x221B17DB EQ PUSH2 0xCE JUMPI DUP1 PUSH4 0x3DD1AE59 EQ PUSH2 0xF2 JUMPI DUP1 PUSH4 0x6D0CEE75 EQ PUSH2 0x115 JUMPI DUP1 PUSH4 0x8DA5CB5B EQ PUSH2 0x154 JUMPI PUSH1 0x0 DUP1 REVERT JUMPDEST CALLDATASIZE PUSH2 0xC9 JUMPI PUSH1 0x40 MLOAD CALLVALUE DUP2 MSTORE CALLER SWAP1 PUSH32 0x8E47B87B0EF542CDFA1659C551D88BAD38AA7F452D2BBB349AB7530DFEC8BE8F SWAP1 PUSH1 0x20 ADD PUSH1 0x40 MLOAD DUP1 SWAP2 SUB SWAP1 LOG2 CALLVALUE ISZERO PUSH2 0xC7 JUMPI PUSH2 0xC7 PUSH2 0x20B JUMP JUMPDEST STOP JUMPDEST PUSH1 0x0 DUP1 REVERT JUMPDEST CALLVALUE DUP1 ISZERO PUSH2 0xDA JUMPI PUSH1 0x0 DUP1 REVERT JUMPDEST POP PUSH1 0x1 SLOAD JUMPDEST PUSH1 0x40 MLOAD SWAP1 DUP2 MSTORE PUSH1 0x20 ADD JUMPDEST PUSH1 0x40 MLOAD DUP1 SWAP2 SUB SWAP1 RETURN JUMPDEST CALLVALUE DUP1 ISZERO PUSH2 0xFE JUMPI PUSH1 0x0 DUP1 REVERT JUMPDEST POP PUSH2 0x107 PUSH2 0x4F1 JUMP JUMPDEST PUSH1 0x40 MLOAD PUSH2 0xE9 SWAP3 SWAP2 SWAP1 PUSH2 0x6E2 JUMP JUMPDEST CALLVALUE DUP1 ISZERO PUSH2 0x121 JUMPI PUSH1 0x0 DUP1 REVERT JUMPDEST POP PUSH2 0x135 PUSH2 0x130 CALLDATASIZE PUSH1 0x4 PUSH2 0x766 JUMP JUMPDEST PUSH2 0x5AE JUMP JUMPDEST PUSH1 0x40 DUP1 MLOAD PUSH1 0x1 PUSH1 0x1 PUSH1 0xA0 SHL SUB SWAP1 SWAP4 AND DUP4 MSTORE PUSH1 0x20 DUP4 ADD SWAP2 SWAP1 SWAP2 MSTORE ADD PUSH2 0xE9 JUMP JUMPDEST CALLVALUE DUP1 ISZERO PUSH2 0x160 JUMPI PUSH1 0x0 DUP1 REVERT JUMPDEST POP PUSH2 0x188 PUSH32 0x0 DUP2 JUMP JUMPDEST PUSH1 0x40 MLOAD PUSH1 0x1 PUSH1 0x1 PUSH1 0xA0 SHL SUB SWAP1 SWAP2 AND DUP2 MSTORE PUSH1 0x20 ADD PUSH2 0xE9 JUMP JUMPDEST CALLVALUE DUP1 ISZERO PUSH2 0x1AC JUMPI PUSH1 0x0 DUP1 REVERT JUMPDEST POP PUSH2 0x188 PUSH2 0x1BB CALLDATASIZE PUSH1 0x4 PUSH2 0x766 JUMP JUMPDEST PUSH2 0x651 JUMP JUMPDEST CALLVALUE DUP1 ISZERO PUSH2 0x1CC JUMPI PUSH1 0x0 DUP1 REVERT JUMPDEST POP PUSH2 0xC7 PUSH2 0x67B JUMP JUMPDEST CALLVALUE DUP1 ISZERO PUSH2 0x1E1 JUMPI PUSH1 0x0 DUP1 REVERT JUMPDEST POP PUSH2 0xDF PUSH1 0x3 SLOAD DUP2 JUMP JUMPDEST CALLVALUE DUP1 ISZERO PUSH2 0x1F7 JUMPI PUSH1 0x0 DUP1 REVERT JUMPDEST POP PUSH2 0xDF PUSH2 0x206 CALLDATASIZE PUSH1 0x4 PUSH2 0x766 JUMP JUMPDEST PUSH2 0x697 JUMP JUMPDEST SELFBALANCE PUSH1 0x0 DUP2 SWAP1 SUB PUSH2 0x22E JUMPI PUSH1 0x40 MLOAD PUSH4 0x18F5992F PUSH1 0xE2 SHL DUP2 MSTORE PUSH1 0x4 ADD PUSH1 0x40 MLOAD DUP1 SWAP2 SUB SWAP1 REVERT JUMPDEST DUP1 PUSH1 0x0 JUMPDEST PUSH1 0x1 DUP1 SLOAD PUSH2 0x240 SWAP2 SWAP1 PUSH2 0x795 JUMP JUMPDEST DUP2 LT ISZERO PUSH2 0x38E JUMPI PUSH1 0x0 PUSH1 0x64 PUSH1 0x2 DUP4 DUP2 SLOAD DUP2 LT PUSH2 0x25E JUMPI PUSH2 0x25E PUSH2 0x7AE JUMP JUMPDEST SWAP1 PUSH1 0x0 MSTORE PUSH1 0x20 PUSH1 0x0 KECCAK256 ADD SLOAD DUP6 PUSH2 0x274 SWAP2 SWAP1 PUSH2 0x7C4 JUMP JUMPDEST PUSH2 0x27E SWAP2 SWAP1 PUSH2 0x7DB JUMP JUMPDEST SWAP1 POP PUSH2 0x28A DUP2 DUP5 PUSH2 0x795 JUMP JUMPDEST SWAP3 POP PUSH1 0x0 PUSH1 0x1 DUP4 DUP2 SLOAD DUP2 LT PUSH2 0x2A1 JUMPI PUSH2 0x2A1 PUSH2 0x7AE JUMP JUMPDEST PUSH1 0x0 SWAP2 DUP3 MSTORE PUSH1 0x20 DUP3 KECCAK256 ADD SLOAD PUSH1 0x40 MLOAD PUSH1 0x1 PUSH1 0x1 PUSH1 0xA0 SHL SUB SWAP1 SWAP2 AND SWAP2 DUP5 SWAP2 SWAP1 DUP2 DUP2 DUP2 DUP6 DUP8 GAS CALL SWAP3 POP POP POP RETURNDATASIZE DUP1 PUSH1 0x0 DUP2 EQ PUSH2 0x2F5 JUMPI PUSH1 0x40 MLOAD SWAP2 POP PUSH1 0x1F NOT PUSH1 0x3F RETURNDATASIZE ADD AND DUP3 ADD PUSH1 0x40 MSTORE RETURNDATASIZE DUP3 MSTORE RETURNDATASIZE PUSH1 0x0 PUSH1 0x20 DUP5 ADD RETURNDATACOPY PUSH2 0x2FA JUMP JUMPDEST PUSH1 0x60 SWAP2 POP JUMPDEST POP POP SWAP1 POP DUP1 PUSH2 0x31C JUMPI PUSH1 0x40 MLOAD PUSH4 0x12171D83 PUSH1 0xE3 SHL DUP2 MSTORE PUSH1 0x4 ADD PUSH1 0x40 MLOAD DUP1 SWAP2 SUB SWAP1 REVERT JUMPDEST PUSH1 0x1 DUP4 DUP2 SLOAD DUP2 LT PUSH2 0x32F JUMPI PUSH2 0x32F PUSH2 0x7AE JUMP JUMPDEST PUSH1 0x0 SWAP2 DUP3 MSTORE PUSH1 0x20 SWAP2 DUP3 SWAP1 KECCAK256 ADD SLOAD PUSH1 0x40 MLOAD DUP5 DUP2 MSTORE PUSH1 0x1 PUSH1 0x1 PUSH1 0xA0 SHL SUB SWAP1 SWAP2 AND SWAP2 PUSH32 0x3345DFF52F7D4D803CBF38E3EA1336038DBC4BB99A73A70C4D64D32ED47AB635 SWAP2 ADD PUSH1 0x40 MLOAD DUP1 SWAP2 SUB SWAP1 LOG2 POP POP DUP1 DUP1 PUSH2 0x386 SWAP1 PUSH2 0x7FD JUMP JUMPDEST SWAP2 POP POP PUSH2 0x232 JUMP JUMPDEST POP DUP1 ISZERO PUSH2 0x49E JUMPI PUSH1 0x1 DUP1 SLOAD PUSH1 0x0 SWAP2 SWAP1 PUSH2 0x3A8 SWAP1 DUP3 SWAP1 PUSH2 0x795 JUMP JUMPDEST DUP2 SLOAD DUP2 LT PUSH2 0x3B8 JUMPI PUSH2 0x3B8 PUSH2 0x7AE JUMP JUMPDEST PUSH1 0x0 SWAP2 DUP3 MSTORE PUSH1 0x20 DUP3 KECCAK256 ADD SLOAD PUSH1 0x40 MLOAD PUSH1 0x1 PUSH1 0x1 PUSH1 0xA0 SHL SUB SWAP1 SWAP2 AND SWAP2 DUP5 SWAP2 SWAP1 DUP2 DUP2 DUP2 DUP6 DUP8 GAS CALL SWAP3 POP POP POP RETURNDATASIZE DUP1 PUSH1 0x0 DUP2 EQ PUSH2 0x40C JUMPI PUSH1 0x40 MLOAD SWAP2 POP PUSH1 0x1F NOT PUSH1 0x3F RETURNDATASIZE ADD AND DUP3 ADD PUSH1 0x40 MSTORE RETURNDATASIZE DUP3 MSTORE RETURNDATASIZE PUSH1 0x0 PUSH1 0x20 DUP5 ADD RETURNDATACOPY PUSH2 0x411 JUMP JUMPDEST PUSH1 0x60 SWAP2 POP JUMPDEST POP POP SWAP1 POP DUP1 PUSH2 0x433 JUMPI PUSH1 0x40 MLOAD PUSH4 0x12171D83 PUSH1 0xE3 SHL DUP2 MSTORE PUSH1 0x4 ADD PUSH1 0x40 MLOAD DUP1 SWAP2 SUB SWAP1 REVERT JUMPDEST PUSH1 0x1 DUP1 SLOAD PUSH2 0x442 SWAP1 DUP3 SWAP1 PUSH2 0x795 JUMP JUMPDEST DUP2 SLOAD DUP2 LT PUSH2 0x452 JUMPI PUSH2 0x452 PUSH2 0x7AE JUMP JUMPDEST PUSH1 0x0 SWAP2 DUP3 MSTORE PUSH1 0x20 SWAP2 DUP3 SWAP1 KECCAK256 ADD SLOAD PUSH1 0x40 MLOAD DUP5 DUP2 MSTORE PUSH1 0x1 PUSH1 0x1 PUSH1 0xA0 SHL SUB SWAP1 SWAP2 AND SWAP2 PUSH32 0x3345DFF52F7D4D803CBF38E3EA1336038DBC4BB99A73A70C4D64D32ED47AB635 SWAP2 ADD PUSH1 0x40 MLOAD DUP1 SWAP2 SUB SWAP1 LOG2 POP JUMPDEST DUP2 PUSH1 0x3 PUSH1 0x0 DUP3 DUP3 SLOAD PUSH2 0x4B0 SWAP2 SWAP1 PUSH2 0x816 JUMP JUMPDEST SWAP1 SWAP2 SSTORE POP POP PUSH1 0x40 DUP1 MLOAD DUP4 DUP2 MSTORE TIMESTAMP PUSH1 0x20 DUP3 ADD MSTORE PUSH32 0x40D8C854B6D5329FD5FCCAE04F5A931D7529963FBAB81ACED7337394E737CB4D SWAP2 ADD PUSH1 0x40 MLOAD DUP1 SWAP2 SUB SWAP1 LOG1 POP POP JUMP JUMPDEST PUSH1 0x60 DUP1 PUSH1 0x1 PUSH1 0x2 DUP2 DUP1 SLOAD DUP1 PUSH1 0x20 MUL PUSH1 0x20 ADD PUSH1 0x40 MLOAD SWAP1 DUP2 ADD PUSH1 0x40 MSTORE DUP1 SWAP3 SWAP2 SWAP1 DUP2 DUP2 MSTORE PUSH1 0x20 ADD DUP3 DUP1 SLOAD DUP1 ISZERO PUSH2 0x54D JUMPI PUSH1 0x20 MUL DUP3 ADD SWAP2 SWAP1 PUSH1 0x0 MSTORE PUSH1 0x20 PUSH1 0x0 KECCAK256 SWAP1 JUMPDEST DUP2 SLOAD PUSH1 0x1 PUSH1 0x1 PUSH1 0xA0 SHL SUB AND DUP2 MSTORE PUSH1 0x1 SWAP1 SWAP2 ADD SWAP1 PUSH1 0x20 ADD DUP1 DUP4 GT PUSH2 0x52F JUMPI JUMPDEST POP POP POP POP POP SWAP2 POP DUP1 DUP1 SLOAD DUP1 PUSH1 0x20 MUL PUSH1 0x20 ADD PUSH1 0x40 MLOAD SWAP1 DUP2 ADD PUSH1 0x40 MSTORE DUP1 SWAP3 SWAP2 SWAP1 DUP2 DUP2 MSTORE PUSH1 0x20 ADD DUP3 DUP1 SLOAD DUP1 ISZERO PUSH2 0x59F JUMPI PUSH1 0x20 MUL DUP3 ADD SWAP2 SWAP1 PUSH1 0x0 MSTORE PUSH1 0x20 PUSH1 0x0 KECCAK256 SWAP1 JUMPDEST DUP2 SLOAD DUP2 MSTORE PUSH1 0x20 ADD SWAP1 PUSH1 0x1 ADD SWAP1 DUP1 DUP4 GT PUSH2 0x58B JUMPI JUMPDEST POP POP POP POP POP SWAP1 POP SWAP2 POP SWAP2 POP SWAP1 SWAP2 JUMP JUMPDEST PUSH1 0x1 SLOAD PUSH1 0x0 SWAP1 DUP2 SWAP1 DUP4 LT PUSH2 0x5FE JUMPI PUSH1 0x40 MLOAD PUSH3 0x461BCD PUSH1 0xE5 SHL DUP2 MSTORE PUSH1 0x20 PUSH1 0x4 DUP3 ADD MSTORE PUSH1 0x13 PUSH1 0x24 DUP3 ADD MSTORE PUSH19 0x496E646578206F7574206F6620626F756E6473 PUSH1 0x68 SHL PUSH1 0x44 DUP3 ADD MSTORE PUSH1 0x64 ADD PUSH1 0x40 MLOAD DUP1 SWAP2 SUB SWAP1 REVERT JUMPDEST PUSH1 0x1 DUP4 DUP2 SLOAD DUP2 LT PUSH2 0x611 JUMPI PUSH2 0x611 PUSH2 0x7AE JUMP JUMPDEST PUSH1 0x0 SWAP2 DUP3 MSTORE PUSH1 0x20 SWAP1 SWAP2 KECCAK256 ADD SLOAD PUSH1 0x2 DUP1 SLOAD PUSH1 0x1 PUSH1 0x1 PUSH1 0xA0 SHL SUB SWAP1 SWAP3 AND SWAP2 DUP6 SWAP1 DUP2 LT PUSH2 0x63D JUMPI PUSH2 0x63D PUSH2 0x7AE JUMP JUMPDEST SWAP1 PUSH1 0x0 MSTORE PUSH1 0x20 PUSH1 0x0 KECCAK256 ADD SLOAD SWAP2 POP SWAP2 POP SWAP2 POP SWAP2 JUMP JUMPDEST PUSH1 0x1 DUP2 DUP2 SLOAD DUP2 LT PUSH2 0x661 JUMPI PUSH1 0x0 DUP1 REVERT JUMPDEST PUSH1 0x0 SWAP2 DUP3 MSTORE PUSH1 0x20 SWAP1 SWAP2 KECCAK256 ADD SLOAD PUSH1 0x1 PUSH1 0x1 PUSH1 0xA0 SHL SUB AND SWAP1 POP DUP2 JUMP JUMPDEST PUSH2 0x683 PUSH2 0x6B8 JUMP JUMPDEST PUSH2 0x68B PUSH2 0x20B JUMP JUMPDEST PUSH2 0x695 PUSH1 0x1 PUSH1 0x0 SSTORE JUMP JUMPDEST JUMP JUMPDEST PUSH1 0x2 DUP2 DUP2 SLOAD DUP2 LT PUSH2 0x6A7 JUMPI PUSH1 0x0 DUP1 REVERT JUMPDEST PUSH1 0x0 SWAP2 DUP3 MSTORE PUSH1 0x20 SWAP1 SWAP2 KECCAK256 ADD SLOAD SWAP1 POP DUP2 JUMP JUMPDEST PUSH1 0x2 PUSH1 0x0 SLOAD SUB PUSH2 0x6DB JUMPI PUSH1 0x40 MLOAD PUSH4 0x3EE5AEB5 PUSH1 0xE0 SHL DUP2 MSTORE PUSH1 0x4 ADD PUSH1 0x40 MLOAD DUP1 SWAP2 SUB SWAP1 REVERT JUMPDEST PUSH1 0x2 PUSH1 0x0 SSTORE JUMP JUMPDEST PUSH1 0x40 DUP1 DUP3 MSTORE DUP4 MLOAD SWAP1 DUP3 ADD DUP2 SWAP1 MSTORE PUSH1 0x0 SWAP1 PUSH1 0x20 SWAP1 PUSH1 0x60 DUP5 ADD SWAP1 DUP3 DUP8 ADD DUP5 JUMPDEST DUP3 DUP2 LT ISZERO PUSH2 0x724 JUMPI DUP2 MLOAD PUSH1 0x1 PUSH1 0x1 PUSH1 0xA0 SHL SUB AND DUP5 MSTORE SWAP3 DUP5 ADD SWAP3 SWAP1 DUP5 ADD SWAP1 PUSH1 0x1 ADD PUSH2 0x6FF JUMP JUMPDEST POP POP POP DUP4 DUP2 SUB DUP3 DUP6 ADD MSTORE DUP5 MLOAD DUP1 DUP3 MSTORE DUP6 DUP4 ADD SWAP2 DUP4 ADD SWAP1 PUSH1 0x0 JUMPDEST DUP2 DUP2 LT ISZERO PUSH2 0x759 JUMPI DUP4 MLOAD DUP4 MSTORE SWAP3 DUP5 ADD SWAP3 SWAP2 DUP5 ADD SWAP2 PUSH1 0x1 ADD PUSH2 0x73D JUMP JUMPDEST POP SWAP1 SWAP8 SWAP7 POP POP POP POP POP POP POP JUMP JUMPDEST PUSH1 0x0 PUSH1 0x20 DUP3 DUP5 SUB SLT ISZERO PUSH2 0x778 JUMPI PUSH1 0x0 DUP1 REVERT JUMPDEST POP CALLDATALOAD SWAP2 SWAP1 POP JUMP JUMPDEST PUSH4 0x4E487B71 PUSH1 0xE0 SHL PUSH1 0x0 MSTORE PUSH1 0x11 PUSH1 0x4 MSTORE PUSH1 0x24 PUSH1 0x0 REVERT JUMPDEST DUP2 DUP2 SUB DUP2 DUP2 GT ISZERO PUSH2 0x7A8 JUMPI PUSH2 0x7A8 PUSH2 0x77F JUMP JUMPDEST SWAP3 SWAP2 POP POP JUMP JUMPDEST PUSH4 0x4E487B71 PUSH1 0xE0 SHL PUSH1 0x0 MSTORE PUSH1 0x32 PUSH1 0x4 MSTORE PUSH1 0x24 PUSH1 0x0 REVERT JUMPDEST DUP1 DUP3 MUL DUP2 ISZERO DUP3 DUP3 DIV DUP5 EQ OR PUSH2 0x7A8 JUMPI PUSH2 0x7A8 PUSH2 0x77F JUMP JUMPDEST PUSH1 0x0 DUP3 PUSH2 0x7F8 JUMPI PUSH4 0x4E487B71 PUSH1 0xE0 SHL PUSH1 0x0 MSTORE PUSH1 0x12 PUSH1 0x4 MSTORE PUSH1 0x24 PUSH1 0x0 REVERT JUMPDEST POP DIV SWAP1 JUMP JUMPDEST PUSH1 0x0 PUSH1 0x1 DUP3 ADD PUSH2 0x80F JUMPI PUSH2 0x80F PUSH2 0x77F JUMP JUMPDEST POP PUSH1 0x1 ADD SWAP1 JUMP JUMPDEST DUP1 DUP3 ADD DUP1 DUP3 GT ISZERO PUSH2 0x7A8 JUMPI PUSH2 0x7A8 PUSH2 0x77F JUMP INVALID LOG2 PUSH5 0x6970667358 0x22 SLT KECCAK256 0xAF 0xA9 0xE5 DUP14 GT 0xBF 0x24 0xC0 0xE0 PUSH2 0xADDC 0x1E 0xB7 CHAINID MULMOD PUSH26 0x22EEEC39D0293523E323023C2E5D9164736F6C63430008140033 LOG2 PUSH5 0x6970667358 0x22 SLT KECCAK256 0xBC SWAP16 MUL 0xE0 MUL 0x2B 0x1F 0xCA 0xEA ADD 0x2F 0xD0 0xF9 STOP 0xA7 SLOAD 0x5D DUP11 CODECOPY 0xB4 MLOAD 0xCE PUSH20 0xA6385CD428EB361EB064736F6C63430008140033 "},"methodIdentifiers":{"allSplits(uint256)":"3c785d1b","createSplit(address[],uint256[])":"c22cda28","getAllSplits()":"befa6645","getAllSplitsCount()":"6f8c842b","getSplitsByOwner(address)":"50725fb5","getSplitsCountByOwner(address)":"395ca5fa","isSplit(address)":"8b8f5031","isValidSplit(address)":"d8d9d48f","splitsByOwner(address,uint256)":"5b006b6b"}}}}}