{
  "_format": "hh-sol-artifact-1",
  "contractName": "SplitBase",
  "sourceName": "contracts/SplitBase.sol",
  "abi": [
    {
      "inputs": [
        {
          "internalType": "address[]",
          "name": "_recipients",
          "type": "address[]"
        },
        {
          "internalType": "uint256[]",
          "name": "_percentages",
          "type": "uint256[]"
        }
      ],
      "stateMutability": "nonpayable",
      "type": "constructor"
    },
    {
      "inputs": [],
      "name": "InvalidArrayLength",
      "type": "error"
    },
    {
      "inputs": [],
      "name": "InvalidPercentage",
      "type": "error"
    },
    {
      "inputs": [],
      "name": "InvalidRecipientAddress",
      "type": "error"
    },
    {
      "inputs": [],
      "name": "NoFundsToDistribute",
      "type": "error"
    },
    {
      "inputs": [],
      "name": "PercentagesMustSumTo100",
      "type": "error"
    },
    {
      "inputs": [],
      "name": "ReentrancyGuardReentrantCall",
      "type": "error"
    },
    {
      "inputs": [],
      "name": "TransferFailed",
      "type": "error"
    },
    {
      "anonymous": false,
      "inputs": [
        {
          "indexed": false,
          "internalType": "uint256",
          "name": "amount",
          "type": "uint256"
        },
        {
          "indexed": false,
          "internalType": "uint256",
          "name": "timestamp",
          "type": "uint256"
        }
      ],
      "name": "FundsDistributed",
      "type": "event"
    },
    {
      "anonymous": false,
      "inputs": [
        {
          "indexed": true,
          "internalType": "address",
          "name": "from",
          "type": "address"
        },
        {
          "indexed": false,
          "internalType": "uint256",
          "name": "amount",
          "type": "uint256"
        }
      ],
      "name": "FundsReceived",
      "type": "event"
    },
    {
      "anonymous": false,
      "inputs": [
        {
          "indexed": true,
          "internalType": "address",
          "name": "recipient",
          "type": "address"
        },
        {
          "indexed": false,
          "internalType": "uint256",
          "name": "amount",
          "type": "uint256"
        }
      ],
      "name": "RecipientPaid",
      "type": "event"
    },
    {
      "inputs": [],
      "name": "distribute",
      "outputs": [],
      "stateMutability": "nonpayable",
      "type": "function"
    },
    {
      "inputs": [
        {
          "internalType": "uint256",
          "name": "index",
          "type": "uint256"
        }
      ],
      "name": "getRecipient",
      "outputs": [
        {
          "internalType": "address",
          "name": "recipient",
          "type": "address"
        },
        {
          "internalType": "uint256",
          "name": "percentage",
          "type": "uint256"
        }
      ],
      "stateMutability": "view",
      "type": "function"
    },
    {
      "inputs": [],
      "name": "getRecipientsCount",
      "outputs": [
        {
          "internalType": "uint256",
          "name": "",
          "type": "uint256"
        }
      ],
      "stateMutability": "view",
      "type": "function"
    },
    {
      "inputs": [],
      "name": "getSplitDetails",
      "outputs": [
        {
          "internalType": "address[]",
          "name": "",
          "type": "address[]"
        },
        {
          "internalType": "uint256[]",
          "name": "",
          "type": "uint256[]"
        }
      ],
      "stateMutability": "view",
      "type": "function"
    },
    {
      "inputs": [],
      "name": "owner",
      "outputs": [
        {
          "internalType": "address",
          "name": "",
          "type": "address"
        }
      ],
      "stateMutability": "view",
      "type": "function"
    },
    {
      "inputs": [
        {
          "internalType": "uint256",
          "name": "",
          "type": "uint256"
        }
      ],
      "name": "percentages",
      "outputs": [
        {
          "internalType": "uint256",
          "name": "",
          "type": "uint256"
        }
      ],
      "stateMutability": "view",
      "type": "function"
    },
    {
      "inputs": [
        {
          "internalType": "uint256",
          "name": "",
          "type": "uint256"
        }
      ],
      "name": "recipients",
      "outputs": [
        {
          "internalType": "address",
          "name": "",
          "type": "address"
        }
      ],
      "stateMutability": "view",
      "type": "function"
    },
    {
      "inputs": [],
      "name": "totalDistributed",
      "outputs": [
        {
          "internalType": "uint256",
          "name": "",
          "type": "uint256"
        }
      ],
      "stateMutability": "view",
      "type": "function"
    },
    {
      "stateMutability": "payable",
      "type": "receive"
    }
  ],
  "bytecode": "0x60a06040523480156200001157600080fd5b5060405162000d0138038062000d01833981016040819052620000349162000344565b6001600055815115806200004a57508051825114155b156200006957604051634ec4810560e11b815260040160405180910390fd5b6000805b8351811015620001465760006001600160a01b031684828151811062000097576200009762000422565b60200260200101516001600160a01b031603620000c75760405163226ccff560e11b815260040160405180910390fd5b828181518110620000dc57620000dc62000422565b60200260200101516000036200010557604051631f3b85d360e01b815260040160405180910390fd5b8281815181106200011a576200011a62000422565b6020026020010151826200012f91906200044e565b9150806200013d816200046a565b9150506200006d565b5080606414620001695760405163217475ff60e21b815260040160405180910390fd5b82516200017e906001906020860190620001a3565b508151620001949060029060208501906200020d565b50503360805250620004869050565b828054828255906000526020600020908101928215620001fb579160200282015b82811115620001fb57825182546001600160a01b0319166001600160a01b03909116178255602090920191600190910190620001c4565b50620002099291506200024b565b5090565b828054828255906000526020600020908101928215620001fb579160200282015b82811115620001fb5782518255916020019190600101906200022e565b5b808211156200020957600081556001016200024c565b634e487b7160e01b600052604160045260246000fd5b604051601f8201601f191681016001600160401b0381118282101715620002a357620002a362000262565b604052919050565b60006001600160401b03821115620002c757620002c762000262565b5060051b60200190565b600082601f830112620002e357600080fd5b81516020620002fc620002f683620002ab565b62000278565b82815260059290921b840181019181810190868411156200031c57600080fd5b8286015b8481101562000339578051835291830191830162000320565b509695505050505050565b600080604083850312156200035857600080fd5b82516001600160401b03808211156200037057600080fd5b818501915085601f8301126200038557600080fd5b8151602062000398620002f683620002ab565b82815260059290921b84018101918181019089841115620003b857600080fd5b948201945b83861015620003ef5785516001600160a01b0381168114620003df5760008081fd5b82529482019490820190620003bd565b918801519196509093505050808211156200040957600080fd5b506200041885828601620002d1565b9150509250929050565b634e487b7160e01b600052603260045260246000fd5b634e487b7160e01b600052601160045260246000fd5b8082018082111562000464576200046462000438565b92915050565b6000600182016200047f576200047f62000438565b5060010190565b60805161085f620004a26000396000610166015261085f6000f3fe60806040526004361061007f5760003560e01c8063d1bc76a11161004e578063d1bc76a1146101a0578063e4fc6b6d146101c0578063efca2eed146101d5578063f8858386146101eb57600080fd5b8063221b17db146100ce5780633dd1ae59146100f25780636d0cee75146101155780638da5cb5b1461015457600080fd5b366100c95760405134815233907f8e47b87b0ef542cdfa1659c551d88bad38aa7f452d2bbb349ab7530dfec8be8f9060200160405180910390a234156100c7576100c761020b565b005b600080fd5b3480156100da57600080fd5b506001545b6040519081526020015b60405180910390f35b3480156100fe57600080fd5b506101076104f1565b6040516100e99291906106e2565b34801561012157600080fd5b50610135610130366004610766565b6105ae565b604080516001600160a01b0390931683526020830191909152016100e9565b34801561016057600080fd5b506101887f000000000000000000000000000000000000000000000000000000000000000081565b6040516001600160a01b0390911681526020016100e9565b3480156101ac57600080fd5b506101886101bb366004610766565b610651565b3480156101cc57600080fd5b506100c761067b565b3480156101e157600080fd5b506100df60035481565b3480156101f757600080fd5b506100df610206366004610766565b610697565b47600081900361022e576040516318f5992f60e21b815260040160405180910390fd5b8060005b600180546102409190610795565b81101561038e57600060646002838154811061025e5761025e6107ae565b90600052602060002001548561027491906107c4565b61027e91906107db565b905061028a8184610795565b92506000600183815481106102a1576102a16107ae565b60009182526020822001546040516001600160a01b039091169184919081818185875af1925050503d80600081146102f5576040519150601f19603f3d011682016040523d82523d6000602084013e6102fa565b606091505b505090508061031c576040516312171d8360e31b815260040160405180910390fd5b6001838154811061032f5761032f6107ae565b600091825260209182902001546040518481526001600160a01b03909116917f3345dff52f7d4d803cbf38e3ea1336038dbc4bb99a73a70c4d64d32ed47ab635910160405180910390a250508080610386906107fd565b915050610232565b50801561049e5760018054600091906103a8908290610795565b815481106103b8576103b86107ae565b60009182526020822001546040516001600160a01b039091169184919081818185875af1925050503d806000811461040c576040519150601f19603f3d011682016040523d82523d6000602084013e610411565b606091505b5050905080610433576040516312171d8360e31b815260040160405180910390fd5b60018054610442908290610795565b81548110610452576104526107ae565b600091825260209182902001546040518481526001600160a01b03909116917f3345dff52f7d4d803cbf38e3ea1336038dbc4bb99a73a70c4d64d32ed47ab635910160405180910390a2505b81600360008282546104b09190610816565b9091555050604080518381524260208201527f40d8c854b6d5329fd5fccae04f5a931d7529963fbab81aced7337394e737cb4d910160405180910390a15050565b606080600160028180548060200260200160405190810160405280929190818152602001828054801561054d57602002820191906000526020600020905b81546001600160a01b0316815260019091019060200180831161052f575b505050505091508080548060200260200160405190810160405280929190818152602001828054801561059f57602002820191906000526020600020905b81548152602001906001019080831161058b575b50505050509050915091509091565b600154600090819083106105fe5760405162461bcd60e51b8152602060048201526013602482015272496e646578206f7574206f6620626f756e647360681b604482015260640160405180910390fd5b60018381548110610611576106116107ae565b600091825260209091200154600280546001600160a01b03909216918590811061063d5761063d6107ae565b906000526020600020015491509150915091565b6001818154811061066157600080fd5b6000918252602090912001546001600160a01b0316905081565b6106836106b8565b61068b61020b565b6106956001600055565b565b600281815481106106a757600080fd5b600091825260209091200154905081565b6002600054036106db57604051633ee5aeb560e01b815260040160405180910390fd5b6002600055565b604080825283519082018190526000906020906060840190828701845b828110156107245781516001600160a01b0316845292840192908401906001016106ff565b5050508381038285015284518082528583019183019060005b818110156107595783518352928401929184019160010161073d565b5090979650505050505050565b60006020828403121561077857600080fd5b5035919050565b634e487b7160e01b600052601160045260246000fd5b818103818111156107a8576107a861077f565b92915050565b634e487b7160e01b600052603260045260246000fd5b80820281158282048414176107a8576107a861077f565b6000826107f857634e487b7160e01b600052601260045260246000fd5b500490565b60006001820161080f5761080f61077f565b5060010190565b808201808211156107a8576107a861077f56fea2646970667358221220afa9e58d11bf24c0e061addc1eb746097922eeec39d0293523e323023c2e5d9164736f6c63430008140033",
  "linkReferences": {},
  "deployedLinkReferences": {}
}